{
  "_format": "hh-sol-artifact-1",
  "contractName": "XRPAccountController",
  "sourceName": "contracts/XRPAccountController.sol",
  "abi": [
    {
      "inputs": [
        {
          "internalType": "address",
          "name": "_fairPlay",
          "type": "address"
        },
        {
          "internalType": "address",
          "name": "_fdc",
          "type": "address"
        },
        {
          "internalType": "address",
          "name": "_fbtc",
          "type": "address"
        }
      ],
      "stateMutability": "nonpayable",
      "type": "constructor"
    },
    {
      "inputs": [
        {
          "internalType": "bytes32",
          "name": "_xrpTxHash",
          "type": "bytes32"
        },
        {
          "internalType": "string",
          "name": "_gameId",
          "type": "string"
        }
      ],
      "name": "executeXRPAction",
      "outputs": [],
      "stateMutability": "nonpayable",
      "type": "function"
    },
    {
      "inputs": [],
      "name": "fairPlay",
      "outputs": [
        {
          "internalType": "contract IFairPlay",
          "name": "",
          "type": "address"
        }
      ],
      "stateMutability": "view",
      "type": "function"
    },
    {
      "inputs": [],
      "name": "fbtc",
      "outputs": [
        {
          "internalType": "contract IERC20",
          "name": "",
          "type": "address"
        }
      ],
      "stateMutability": "view",
      "type": "function"
    },
    {
      "inputs": [],
      "name": "fdc",
      "outputs": [
        {
          "internalType": "contract IMockFDC",
          "name": "",
          "type": "address"
        }
      ],
      "stateMutability": "view",
      "type": "function"
    },
    {
      "inputs": [
        {
          "internalType": "bytes32",
          "name": "",
          "type": "bytes32"
        }
      ],
      "name": "processedTx",
      "outputs": [
        {
          "internalType": "bool",
          "name": "",
          "type": "bool"
        }
      ],
      "stateMutability": "view",
      "type": "function"
    }
  ],
  "bytecode": "0x608060405234801561001057600080fd5b5060405162000dc138038062000dc183398181016040528101906100349190610161565b826000806101000a81548173ffffffffffffffffffffffffffffffffffffffff021916908373ffffffffffffffffffffffffffffffffffffffff16021790555081600160006101000a81548173ffffffffffffffffffffffffffffffffffffffff021916908373ffffffffffffffffffffffffffffffffffffffff16021790555080600260006101000a81548173ffffffffffffffffffffffffffffffffffffffff021916908373ffffffffffffffffffffffffffffffffffffffff1602179055505050506101b4565b600080fd5b600073ffffffffffffffffffffffffffffffffffffffff82169050919050565b600061012e82610103565b9050919050565b61013e81610123565b811461014957600080fd5b50565b60008151905061015b81610135565b92915050565b60008060006060848603121561017a576101796100fe565b5b60006101888682870161014c565b93505060206101998682870161014c565b92505060406101aa8682870161014c565b9150509250925092565b610bfd80620001c46000396000f3fe608060405234801561001057600080fd5b50600436106100575760003560e01c80632eb3e1d11461005c5780633275f21c1461007a578063b660c03514610098578063bcca1e10146100b4578063c260a212146100e4575b600080fd5b610064610102565b6040516100719190610518565b60405180910390f35b610082610128565b60405161008f9190610554565b60405180910390f35b6100b260048036038101906100ad91906106ff565b61014e565b005b6100ce60048036038101906100c9919061075b565b610455565b6040516100db91906107a3565b60405180910390f35b6100ec610475565b6040516100f991906107df565b60405180910390f35b600260009054906101000a900473ffffffffffffffffffffffffffffffffffffffff1681565b600160009054906101000a900473ffffffffffffffffffffffffffffffffffffffff1681565b6003600083815260200190815260200160002060009054906101000a900460ff16156101af576040517f08c379a00000000000000000000000000000000000000000000000000000000081526004016101a690610857565b60405180910390fd5b600080600160009054906101000a900473ffffffffffffffffffffffffffffffffffffffff1673ffffffffffffffffffffffffffffffffffffffff1663c592892e856802b5e3af16b1880000866040518463ffffffff1660e01b815260040161021a93929190610939565b6040805180830381865afa158015610236573d6000803e3d6000fd5b505050506040513d601f19601f8201168201806040525081019061025a91906109e1565b915091508161029e576040517f08c379a000000000000000000000000000000000000000000000000000000000815260040161029590610a6d565b60405180910390fd5b60016003600086815260200190815260200160002060006101000a81548160ff021916908315150217905550600260009054906101000a900473ffffffffffffffffffffffffffffffffffffffff1673ffffffffffffffffffffffffffffffffffffffff1663095ea7b360008054906101000a900473ffffffffffffffffffffffffffffffffffffffff166802b5e3af16b18800006040518363ffffffff1660e01b8152600401610350929190610a9c565b6020604051808303816000875af115801561036f573d6000803e3d6000fd5b505050506040513d601f19601f820116820180604052508101906103939190610ac5565b50600083336040516020016103a9929190610b76565b60405160208183030381529060405280519060200120905060008054906101000a900473ffffffffffffffffffffffffffffffffffffffff1673ffffffffffffffffffffffffffffffffffffffff1663e45bc69a82846040518363ffffffff1660e01b815260040161041c929190610b9e565b600060405180830381600087803b15801561043657600080fd5b505af115801561044a573d6000803e3d6000fd5b505050505050505050565b60036020528060005260406000206000915054906101000a900460ff1681565b60008054906101000a900473ffffffffffffffffffffffffffffffffffffffff1681565b600073ffffffffffffffffffffffffffffffffffffffff82169050919050565b6000819050919050565b60006104de6104d96104d484610499565b6104b9565b610499565b9050919050565b60006104f0826104c3565b9050919050565b6000610502826104e5565b9050919050565b610512816104f7565b82525050565b600060208201905061052d6000830184610509565b92915050565b600061053e826104e5565b9050919050565b61054e81610533565b82525050565b60006020820190506105696000830184610545565b92915050565b6000604051905090565b600080fd5b600080fd5b6000819050919050565b61059681610583565b81146105a157600080fd5b50565b6000813590506105b38161058d565b92915050565b600080fd5b600080fd5b6000601f19601f8301169050919050565b7f4e487b7100000000000000000000000000000000000000000000000000000000600052604160045260246000fd5b61060c826105c3565b810181811067ffffffffffffffff8211171561062b5761062a6105d4565b5b80604052505050565b600061063e61056f565b905061064a8282610603565b919050565b600067ffffffffffffffff82111561066a576106696105d4565b5b610673826105c3565b9050602081019050919050565b82818337600083830152505050565b60006106a261069d8461064f565b610634565b9050828152602081018484840111156106be576106bd6105be565b5b6106c9848285610680565b509392505050565b600082601f8301126106e6576106e56105b9565b5b81356106f684826020860161068f565b91505092915050565b6000806040838503121561071657610715610579565b5b6000610724858286016105a4565b925050602083013567ffffffffffffffff8111156107455761074461057e565b5b610751858286016106d1565b9150509250929050565b60006020828403121561077157610770610579565b5b600061077f848285016105a4565b91505092915050565b60008115159050919050565b61079d81610788565b82525050565b60006020820190506107b86000830184610794565b92915050565b60006107c9826104e5565b9050919050565b6107d9816107be565b82525050565b60006020820190506107f460008301846107d0565b92915050565b600082825260208201905092915050565b7f547820616c726561647920757365640000000000000000000000000000000000600082015250565b6000610841600f836107fa565b915061084c8261080b565b602082019050919050565b6000602082019050818103600083015261087081610834565b9050919050565b61088081610583565b82525050565b6000819050919050565b6000819050919050565b60006108b56108b06108ab84610886565b6104b9565b610890565b9050919050565b6108c58161089a565b82525050565b600081519050919050565b60005b838110156108f45780820151818401526020810190506108d9565b60008484015250505050565b600061090b826108cb565b61091581856107fa565b93506109258185602086016108d6565b61092e816105c3565b840191505092915050565b600060608201905061094e6000830186610877565b61095b60208301856108bc565b818103604083015261096d8184610900565b9050949350505050565b61098081610788565b811461098b57600080fd5b50565b60008151905061099d81610977565b92915050565b60006109ae82610499565b9050919050565b6109be816109a3565b81146109c957600080fd5b50565b6000815190506109db816109b5565b92915050565b600080604083850312156109f8576109f7610579565b5b6000610a068582860161098e565b9250506020610a17858286016109cc565b9150509250929050565b7f496e76616c696420585250205061796d656e7400000000000000000000000000600082015250565b6000610a576013836107fa565b9150610a6282610a21565b602082019050919050565b60006020820190508181036000830152610a8681610a4a565b9050919050565b610a96816109a3565b82525050565b6000604082019050610ab16000830185610a8d565b610abe60208301846108bc565b9392505050565b600060208284031215610adb57610ada610579565b5b6000610ae98482850161098e565b91505092915050565b600081905092915050565b6000610b08826108cb565b610b128185610af2565b9350610b228185602086016108d6565b80840191505092915050565b60008160601b9050919050565b6000610b4682610b2e565b9050919050565b6000610b5882610b3b565b9050919050565b610b70610b6b826109a3565b610b4d565b82525050565b6000610b828285610afd565b9150610b8e8284610b5f565b6014820191508190509392505050565b6000604082019050610bb36000830185610877565b610bc06020830184610a8d565b939250505056fea26469706673582212202149ac315bbc10736cb242a69ee2a62a34502f4691755a232d716f282e24d1c564736f6c63430008140033",
  "linkReferences": {},
  "deployedLinkReferences": {}
}