{"contracts/MockFDC.sol":{"MockFDC":{"abi":[{"inputs":[{"internalType":"bytes32","name":"_txHash","type":"bytes32"},{"internalType":"uint256","name":"_amount","type":"uint256"},{"internalType":"string","name":"_memo","type":"string"}],"name":"verifyPayment","outputs":[{"internalType":"bool","name":"","type":"bool"},{"internalType":"address","name":"","type":"address"}],"stateMutability":"pure","type":"function"}],"evm":{"bytecode":{"linkReferences":{},"object":"608060405234801561001057600080fd5b506103ce806100206000396000f3fe608060405234801561001057600080fd5b506004361061002b5760003560e01c8063c592892e14610030575b600080fd5b61004a60048036038101906100459190610268565b610061565b604051610058929190610333565b60405180910390f35b600080600085604051602001610077919061037d565b6040516020818303038152906040528051906020012060001c90506001819250925050935093915050565b6000604051905090565b600080fd5b600080fd5b6000819050919050565b6100c9816100b6565b81146100d457600080fd5b50565b6000813590506100e6816100c0565b92915050565b6000819050919050565b6100ff816100ec565b811461010a57600080fd5b50565b60008135905061011c816100f6565b92915050565b600080fd5b600080fd5b6000601f19601f8301169050919050565b7f4e487b7100000000000000000000000000000000000000000000000000000000600052604160045260246000fd5b6101758261012c565b810181811067ffffffffffffffff821117156101945761019361013d565b5b80604052505050565b60006101a76100a2565b90506101b3828261016c565b919050565b600067ffffffffffffffff8211156101d3576101d261013d565b5b6101dc8261012c565b9050602081019050919050565b82818337600083830152505050565b600061020b610206846101b8565b61019d565b90508281526020810184848401111561022757610226610127565b5b6102328482856101e9565b509392505050565b600082601f83011261024f5761024e610122565b5b813561025f8482602086016101f8565b91505092915050565b600080600060608486031215610281576102806100ac565b5b600061028f868287016100d7565b93505060206102a08682870161010d565b925050604084013567ffffffffffffffff8111156102c1576102c06100b1565b5b6102cd8682870161023a565b9150509250925092565b60008115159050919050565b6102ec816102d7565b82525050565b600073ffffffffffffffffffffffffffffffffffffffff82169050919050565b600061031d826102f2565b9050919050565b61032d81610312565b82525050565b600060408201905061034860008301856102e3565b6103556020830184610324565b9392505050565b6000819050919050565b610377610372826100b6565b61035c565b82525050565b60006103898284610366565b6020820191508190509291505056fea26469706673582212204d07af354988788ab32eb6c25493aa88cd2f76fe2de257ad6ce20a02b52734ea64736f6c63430008140033","opcodes":"PUSH1 0x80 PUSH1 0x40 MSTORE CALLVALUE DUP1 ISZERO PUSH2 0x10 JUMPI PUSH1 0x0 DUP1 REVERT JUMPDEST POP PUSH2 0x3CE DUP1 PUSH2 0x20 PUSH1 0x0 CODECOPY PUSH1 0x0 RETURN INVALID PUSH1 0x80 PUSH1 0x40 MSTORE CALLVALUE DUP1 ISZERO PUSH2 0x10 JUMPI PUSH1 0x0 DUP1 REVERT JUMPDEST POP PUSH1 0x4 CALLDATASIZE LT PUSH2 0x2B JUMPI PUSH1 0x0 CALLDATALOAD PUSH1 0xE0 SHR DUP1 PUSH4 0xC592892E EQ PUSH2 0x30 JUMPI JUMPDEST PUSH1 0x0 DUP1 REVERT JUMPDEST PUSH2 0x4A PUSH1 0x4 DUP1 CALLDATASIZE SUB DUP2 ADD SWAP1 PUSH2 0x45 SWAP2 SWAP1 PUSH2 0x268 JUMP JUMPDEST PUSH2 0x61 JUMP JUMPDEST PUSH1 0x40 MLOAD PUSH2 0x58 SWAP3 SWAP2 SWAP1 PUSH2 0x333 JUMP JUMPDEST PUSH1 0x40 MLOAD DUP1 SWAP2 SUB SWAP1 RETURN JUMPDEST PUSH1 0x0 DUP1 PUSH1 0x0 DUP6 PUSH1 0x40 MLOAD PUSH1 0x20 ADD PUSH2 0x77 SWAP2 SWAP1 PUSH2 0x37D JUMP JUMPDEST PUSH1 0x40 MLOAD PUSH1 0x20 DUP2 DUP4 SUB SUB DUP2 MSTORE SWAP1 PUSH1 0x40 MSTORE DUP1 MLOAD SWAP1 PUSH1 0x20 ADD KECCAK256 PUSH1 0x0 SHR SWAP1 POP PUSH1 0x1 DUP2 SWAP3 POP SWAP3 POP POP SWAP4 POP SWAP4 SWAP2 POP POP JUMP JUMPDEST PUSH1 0x0 PUSH1 0x40 MLOAD SWAP1 POP SWAP1 JUMP JUMPDEST PUSH1 0x0 DUP1 REVERT JUMPDEST PUSH1 0x0 DUP1 REVERT JUMPDEST PUSH1 0x0 DUP2 SWAP1 POP SWAP2 SWAP1 POP JUMP JUMPDEST PUSH2 0xC9 DUP2 PUSH2 0xB6 JUMP JUMPDEST DUP2 EQ PUSH2 0xD4 JUMPI PUSH1 0x0 DUP1 REVERT JUMPDEST POP JUMP JUMPDEST PUSH1 0x0 DUP2 CALLDATALOAD SWAP1 POP PUSH2 0xE6 DUP2 PUSH2 0xC0 JUMP JUMPDEST SWAP3 SWAP2 POP POP JUMP JUMPDEST PUSH1 0x0 DUP2 SWAP1 POP SWAP2 SWAP1 POP JUMP JUMPDEST PUSH2 0xFF DUP2 PUSH2 0xEC JUMP JUMPDEST DUP2 EQ PUSH2 0x10A JUMPI PUSH1 0x0 DUP1 REVERT JUMPDEST POP JUMP JUMPDEST PUSH1 0x0 DUP2 CALLDATALOAD SWAP1 POP PUSH2 0x11C DUP2 PUSH2 0xF6 JUMP JUMPDEST SWAP3 SWAP2 POP POP JUMP JUMPDEST PUSH1 0x0 DUP1 REVERT JUMPDEST PUSH1 0x0 DUP1 REVERT JUMPDEST PUSH1 0x0 PUSH1 0x1F NOT PUSH1 0x1F DUP4 ADD AND SWAP1 POP SWAP2 SWAP1 POP JUMP JUMPDEST PUSH32 0x4E487B7100000000000000000000000000000000000000000000000000000000 PUSH1 0x0 MSTORE PUSH1 0x41 PUSH1 0x4 MSTORE PUSH1 0x24 PUSH1 0x0 REVERT JUMPDEST PUSH2 0x175 DUP3 PUSH2 0x12C JUMP JUMPDEST DUP2 ADD DUP2 DUP2 LT PUSH8 0xFFFFFFFFFFFFFFFF DUP3 GT OR ISZERO PUSH2 0x194 JUMPI PUSH2 0x193 PUSH2 0x13D JUMP JUMPDEST JUMPDEST DUP1 PUSH1 0x40 MSTORE POP POP POP JUMP JUMPDEST PUSH1 0x0 PUSH2 0x1A7 PUSH2 0xA2 JUMP JUMPDEST SWAP1 POP PUSH2 0x1B3 DUP3 DUP3 PUSH2 0x16C JUMP JUMPDEST SWAP2 SWAP1 POP JUMP JUMPDEST PUSH1 0x0 PUSH8 0xFFFFFFFFFFFFFFFF DUP3 GT ISZERO PUSH2 0x1D3 JUMPI PUSH2 0x1D2 PUSH2 0x13D JUMP JUMPDEST JUMPDEST PUSH2 0x1DC DUP3 PUSH2 0x12C JUMP JUMPDEST SWAP1 POP PUSH1 0x20 DUP2 ADD SWAP1 POP SWAP2 SWAP1 POP JUMP JUMPDEST DUP3 DUP2 DUP4 CALLDATACOPY PUSH1 0x0 DUP4 DUP4 ADD MSTORE POP POP POP JUMP JUMPDEST PUSH1 0x0 PUSH2 0x20B PUSH2 0x206 DUP5 PUSH2 0x1B8 JUMP JUMPDEST PUSH2 0x19D JUMP JUMPDEST SWAP1 POP DUP3 DUP2 MSTORE PUSH1 0x20 DUP2 ADD DUP5 DUP5 DUP5 ADD GT ISZERO PUSH2 0x227 JUMPI PUSH2 0x226 PUSH2 0x127 JUMP JUMPDEST JUMPDEST PUSH2 0x232 DUP5 DUP3 DUP6 PUSH2 0x1E9 JUMP JUMPDEST POP SWAP4 SWAP3 POP POP POP JUMP JUMPDEST PUSH1 0x0 DUP3 PUSH1 0x1F DUP4 ADD SLT PUSH2 0x24F JUMPI PUSH2 0x24E PUSH2 0x122 JUMP JUMPDEST JUMPDEST DUP2 CALLDATALOAD PUSH2 0x25F DUP5 DUP3 PUSH1 0x20 DUP7 ADD PUSH2 0x1F8 JUMP JUMPDEST SWAP2 POP POP SWAP3 SWAP2 POP POP JUMP JUMPDEST PUSH1 0x0 DUP1 PUSH1 0x0 PUSH1 0x60 DUP5 DUP7 SUB SLT ISZERO PUSH2 0x281 JUMPI PUSH2 0x280 PUSH2 0xAC JUMP JUMPDEST JUMPDEST PUSH1 0x0 PUSH2 0x28F DUP7 DUP3 DUP8 ADD PUSH2 0xD7 JUMP JUMPDEST SWAP4 POP POP PUSH1 0x20 PUSH2 0x2A0 DUP7 DUP3 DUP8 ADD PUSH2 0x10D JUMP JUMPDEST SWAP3 POP POP PUSH1 0x40 DUP5 ADD CALLDATALOAD PUSH8 0xFFFFFFFFFFFFFFFF DUP2 GT ISZERO PUSH2 0x2C1 JUMPI PUSH2 0x2C0 PUSH2 0xB1 JUMP JUMPDEST JUMPDEST PUSH2 0x2CD DUP7 DUP3 DUP8 ADD PUSH2 0x23A JUMP JUMPDEST SWAP2 POP POP SWAP3 POP SWAP3 POP SWAP3 JUMP JUMPDEST PUSH1 0x0 DUP2 ISZERO ISZERO SWAP1 POP SWAP2 SWAP1 POP JUMP JUMPDEST PUSH2 0x2EC DUP2 PUSH2 0x2D7 JUMP JUMPDEST DUP3 MSTORE POP POP JUMP JUMPDEST PUSH1 0x0 PUSH20 0xFFFFFFFFFFFFFFFFFFFFFFFFFFFFFFFFFFFFFFFF DUP3 AND SWAP1 POP SWAP2 SWAP1 POP JUMP JUMPDEST PUSH1 0x0 PUSH2 0x31D DUP3 PUSH2 0x2F2 JUMP JUMPDEST SWAP1 POP SWAP2 SWAP1 POP JUMP JUMPDEST PUSH2 0x32D DUP2 PUSH2 0x312 JUMP JUMPDEST DUP3 MSTORE POP POP JUMP JUMPDEST PUSH1 0x0 PUSH1 0x40 DUP3 ADD SWAP1 POP PUSH2 0x348 PUSH1 0x0 DUP4 ADD DUP6 PUSH2 0x2E3 JUMP JUMPDEST PUSH2 0x355 PUSH1 0x20 DUP4 ADD DUP5 PUSH2 0x324 JUMP JUMPDEST SWAP4 SWAP3 POP POP POP JUMP JUMPDEST PUSH1 0x0 DUP2 SWAP1 POP SWAP2 SWAP1 POP JUMP JUMPDEST PUSH2 0x377 PUSH2 0x372 DUP3 PUSH2 0xB6 JUMP JUMPDEST PUSH2 0x35C JUMP JUMPDEST DUP3 MSTORE POP POP JUMP JUMPDEST PUSH1 0x0 PUSH2 0x389 DUP3 DUP5 PUSH2 0x366 JUMP JUMPDEST PUSH1 0x20 DUP3 ADD SWAP2 POP DUP2 SWAP1 POP SWAP3 SWAP2 POP POP JUMP INVALID LOG2 PUSH5 0x6970667358 0x22 SLT KECCAK256 0x4D SMOD 0xAF CALLDATALOAD 0x49 DUP9 PUSH25 0x8AB32EB6C25493AA88CD2F76FE2DE257AD6CE20A02B52734EA PUSH5 0x736F6C6343 STOP ADDMOD EQ STOP CALLER "},"methodIdentifiers":{"verifyPayment(bytes32,uint256,string)":"c592892e"}}}}}