{"contracts/FairPlay.sol":{"FairPlay":{"abi":[{"inputs":[{"internalType":"address","name":"_tokenAddress","type":"address"},{"internalType":"address","name":"_verifier","type":"address"}],"stateMutability":"nonpayable","type":"constructor"},{"inputs":[{"internalType":"string","name":"_gameId","type":"string"},{"internalType":"uint256","name":"_amount","type":"uint256"}],"name":"createMatch","outputs":[],"stateMutability":"nonpayable","type":"function"},{"inputs":[],"name":"fdcVerifier","outputs":[{"internalType":"address","name":"","type":"address"}],"stateMutability":"view","type":"function"},{"inputs":[{"internalType":"bytes32","name":"_matchHash","type":"bytes32"}],"name":"joinMatch","outputs":[],"stateMutability":"nonpayable","type":"function"},{"inputs":[{"internalType":"bytes32","name":"","type":"bytes32"}],"name":"matches","outputs":[{"internalType":"address","name":"player1","type":"address"},{"internalType":"address","name":"player2","type":"address"},{"internalType":"uint256","name":"wagerAmount","type":"uint256"},{"internalType":"bool","name":"isActive","type":"bool"},{"internalType":"string","name":"gameId","type":"string"}],"stateMutability":"view","type":"function"},{"inputs":[],"name":"paymentToken","outputs":[{"internalType":"contract IERC20","name":"","type":"address"}],"stateMutability":"view","type":"function"},{"inputs":[{"internalType":"bytes32","name":"_matchHash","type":"bytes32"},{"internalType":"address","name":"_winner","type":"address"}],"name":"payoutWinner","outputs":[],"stateMutability":"nonpayable","type":"function"}],"evm":{"bytecode":{"linkReferences":{},"object":"60806040523480156200001157600080fd5b50604051620017243803806200172483398181016040528101906200003791906200012a565b816000806101000a81548173ffffffffffffffffffffffffffffffffffffffff021916908373ffffffffffffffffffffffffffffffffffffffff16021790555080600160006101000a81548173ffffffffffffffffffffffffffffffffffffffff021916908373ffffffffffffffffffffffffffffffffffffffff160217905550505062000171565b600080fd5b600073ffffffffffffffffffffffffffffffffffffffff82169050919050565b6000620000f282620000c5565b9050919050565b6200010481620000e5565b81146200011057600080fd5b50565b6000815190506200012481620000f9565b92915050565b60008060408385031215620001445762000143620000c0565b5b6000620001548582860162000113565b9250506020620001678582860162000113565b9150509250929050565b6115a380620001816000396000f3fe608060405234801561001057600080fd5b50600436106100625760003560e01c80633013ce29146100675780639fe9ada3146100855780639ff69442146100b9578063be5efe65146100d5578063e0e7e6b8146100f1578063f0875f1d1461010f575b600080fd5b61006f61012b565b60405161007c91906109ba565b60405180910390f35b61009f600480360381019061009a9190610a1f565b61014f565b6040516100b0959493929190610b31565b60405180910390f35b6100d360048036038101906100ce9190610a1f565b61025a565b005b6100ef60048036038101906100ea9190610cec565b61047f565b005b6100f961070e565b6040516101069190610d48565b60405180910390f35b61012960048036038101906101249190610d8f565b610734565b005b60008054906101000a900473ffffffffffffffffffffffffffffffffffffffff1681565b60026020528060005260406000206000915090508060000160009054906101000a900473ffffffffffffffffffffffffffffffffffffffff16908060010160009054906101000a900473ffffffffffffffffffffffffffffffffffffffff16908060020154908060030160009054906101000a900460ff16908060040180546101d790610dfe565b80601f016020809104026020016040519081016040528092919081815260200182805461020390610dfe565b80156102505780601f1061022557610100808354040283529160200191610250565b820191906000526020600020905b81548152906001019060200180831161023357829003601f168201915b5050505050905085565b60006002600083815260200190815260200160002090508060030160009054906101000a900460ff166102c2576040517f08c379a00000000000000000000000000000000000000000000000000000000081526004016102b990610e7b565b60405180910390fd5b600073ffffffffffffffffffffffffffffffffffffffff168160010160009054906101000a900473ffffffffffffffffffffffffffffffffffffffff1673ffffffffffffffffffffffffffffffffffffffff1614610355576040517f08c379a000000000000000000000000000000000000000000000000000000000815260040161034c90610ee7565b60405180910390fd5b60008054906101000a900473ffffffffffffffffffffffffffffffffffffffff1673ffffffffffffffffffffffffffffffffffffffff166323b872dd333084600201546040518463ffffffff1660e01b81526004016103b693929190610f07565b6020604051808303816000875af11580156103d5573d6000803e3d6000fd5b505050506040513d601f19601f820116820180604052508101906103f99190610f6a565b610438576040517f08c379a000000000000000000000000000000000000000000000000000000000815260040161042f90610fe3565b60405180910390fd5b338160010160006101000a81548173ffffffffffffffffffffffffffffffffffffffff021916908373ffffffffffffffffffffffffffffffffffffffff1602179055505050565b600081116104c2576040517f08c379a00000000000000000000000000000000000000000000000000000000081526004016104b99061104f565b60405180910390fd5b60008054906101000a900473ffffffffffffffffffffffffffffffffffffffff1673ffffffffffffffffffffffffffffffffffffffff166323b872dd3330846040518463ffffffff1660e01b815260040161051f93929190610f07565b6020604051808303816000875af115801561053e573d6000803e3d6000fd5b505050506040513d601f19601f820116820180604052508101906105629190610f6a565b6105a1576040517f08c379a000000000000000000000000000000000000000000000000000000000815260040161059890610fe3565b60405180910390fd5b600082336040516020016105b69291906110f3565b6040516020818303038152906040528051906020012090506040518060a001604052803373ffffffffffffffffffffffffffffffffffffffff168152602001600073ffffffffffffffffffffffffffffffffffffffff168152602001838152602001600115158152602001848152506002600083815260200190815260200160002060008201518160000160006101000a81548173ffffffffffffffffffffffffffffffffffffffff021916908373ffffffffffffffffffffffffffffffffffffffff16021790555060208201518160010160006101000a81548173ffffffffffffffffffffffffffffffffffffffff021916908373ffffffffffffffffffffffffffffffffffffffff1602179055506040820151816002015560608201518160030160006101000a81548160ff021916908315150217905550608082015181600401908161070591906112bd565b50905050505050565b600160009054906101000a900473ffffffffffffffffffffffffffffffffffffffff1681565b600160009054906101000a900473ffffffffffffffffffffffffffffffffffffffff1673ffffffffffffffffffffffffffffffffffffffff163373ffffffffffffffffffffffffffffffffffffffff16146107c4576040517f08c379a00000000000000000000000000000000000000000000000000000000081526004016107bb906113db565b60405180910390fd5b60006002600084815260200190815260200160002090508060030160009054906101000a900460ff1661082c576040517f08c379a000000000000000000000000000000000000000000000000000000000815260040161082390611447565b60405180910390fd5b60008160030160006101000a81548160ff02191690831515021790555060008054906101000a900473ffffffffffffffffffffffffffffffffffffffff1673ffffffffffffffffffffffffffffffffffffffff1663a9059cbb83600284600201546108979190611496565b6040518363ffffffff1660e01b81526004016108b49291906114d8565b6020604051808303816000875af11580156108d3573d6000803e3d6000fd5b505050506040513d601f19601f820116820180604052508101906108f79190610f6a565b610936576040517f08c379a000000000000000000000000000000000000000000000000000000000815260040161092d9061154d565b60405180910390fd5b505050565b600073ffffffffffffffffffffffffffffffffffffffff82169050919050565b6000819050919050565b600061098061097b6109768461093b565b61095b565b61093b565b9050919050565b600061099282610965565b9050919050565b60006109a482610987565b9050919050565b6109b481610999565b82525050565b60006020820190506109cf60008301846109ab565b92915050565b6000604051905090565b600080fd5b600080fd5b6000819050919050565b6109fc816109e9565b8114610a0757600080fd5b50565b600081359050610a19816109f3565b92915050565b600060208284031215610a3557610a346109df565b5b6000610a4384828501610a0a565b91505092915050565b6000610a578261093b565b9050919050565b610a6781610a4c565b82525050565b6000819050919050565b610a8081610a6d565b82525050565b60008115159050919050565b610a9b81610a86565b82525050565b600081519050919050565b600082825260208201905092915050565b60005b83811015610adb578082015181840152602081019050610ac0565b60008484015250505050565b6000601f19601f8301169050919050565b6000610b0382610aa1565b610b0d8185610aac565b9350610b1d818560208601610abd565b610b2681610ae7565b840191505092915050565b600060a082019050610b466000830188610a5e565b610b536020830187610a5e565b610b606040830186610a77565b610b6d6060830185610a92565b8181036080830152610b7f8184610af8565b90509695505050505050565b600080fd5b600080fd5b7f4e487b7100000000000000000000000000000000000000000000000000000000600052604160045260246000fd5b610bcd82610ae7565b810181811067ffffffffffffffff82111715610bec57610beb610b95565b5b80604052505050565b6000610bff6109d5565b9050610c0b8282610bc4565b919050565b600067ffffffffffffffff821115610c2b57610c2a610b95565b5b610c3482610ae7565b9050602081019050919050565b82818337600083830152505050565b6000610c63610c5e84610c10565b610bf5565b905082815260208101848484011115610c7f57610c7e610b90565b5b610c8a848285610c41565b509392505050565b600082601f830112610ca757610ca6610b8b565b5b8135610cb7848260208601610c50565b91505092915050565b610cc981610a6d565b8114610cd457600080fd5b50565b600081359050610ce681610cc0565b92915050565b60008060408385031215610d0357610d026109df565b5b600083013567ffffffffffffffff811115610d2157610d206109e4565b5b610d2d85828601610c92565b9250506020610d3e85828601610cd7565b9150509250929050565b6000602082019050610d5d6000830184610a5e565b92915050565b610d6c81610a4c565b8114610d7757600080fd5b50565b600081359050610d8981610d63565b92915050565b60008060408385031215610da657610da56109df565b5b6000610db485828601610a0a565b9250506020610dc585828601610d7a565b9150509250929050565b7f4e487b7100000000000000000000000000000000000000000000000000000000600052602260045260246000fd5b60006002820490506001821680610e1657607f821691505b602082108103610e2957610e28610dcf565b5b50919050565b7f496e616374697665206d61746368000000000000000000000000000000000000600082015250565b6000610e65600e83610aac565b9150610e7082610e2f565b602082019050919050565b60006020820190508181036000830152610e9481610e58565b9050919050565b7f4d617463682066756c6c00000000000000000000000000000000000000000000600082015250565b6000610ed1600a83610aac565b9150610edc82610e9b565b602082019050919050565b60006020820190508181036000830152610f0081610ec4565b9050919050565b6000606082019050610f1c6000830186610a5e565b610f296020830185610a5e565b610f366040830184610a77565b949350505050565b610f4781610a86565b8114610f5257600080fd5b50565b600081519050610f6481610f3e565b92915050565b600060208284031215610f8057610f7f6109df565b5b6000610f8e84828501610f55565b91505092915050565b7f5472616e73666572206661696c65640000000000000000000000000000000000600082015250565b6000610fcd600f83610aac565b9150610fd882610f97565b602082019050919050565b60006020820190508181036000830152610ffc81610fc0565b9050919050565b7f5a65726f20776167657200000000000000000000000000000000000000000000600082015250565b6000611039600a83610aac565b915061104482611003565b602082019050919050565b600060208201905081810360008301526110688161102c565b9050919050565b600081905092915050565b600061108582610aa1565b61108f818561106f565b935061109f818560208601610abd565b80840191505092915050565b60008160601b9050919050565b60006110c3826110ab565b9050919050565b60006110d5826110b8565b9050919050565b6110ed6110e882610a4c565b6110ca565b82525050565b60006110ff828561107a565b915061110b82846110dc565b6014820191508190509392505050565b60008190508160005260206000209050919050565b60006020601f8301049050919050565b600082821b905092915050565b60006008830261117d7fffffffffffffffffffffffffffffffffffffffffffffffffffffffffffffffff82611140565b6111878683611140565b95508019841693508086168417925050509392505050565b60006111ba6111b56111b084610a6d565b61095b565b610a6d565b9050919050565b6000819050919050565b6111d48361119f565b6111e86111e0826111c1565b84845461114d565b825550505050565b600090565b6111fd6111f0565b6112088184846111cb565b505050565b5b8181101561122c576112216000826111f5565b60018101905061120e565b5050565b601f821115611271576112428161111b565b61124b84611130565b8101602085101561125a578190505b61126e61126685611130565b83018261120d565b50505b505050565b600082821c905092915050565b600061129460001984600802611276565b1980831691505092915050565b60006112ad8383611283565b9150826002028217905092915050565b6112c682610aa1565b67ffffffffffffffff8111156112df576112de610b95565b5b6112e98254610dfe565b6112f4828285611230565b600060209050601f8311600181146113275760008415611315578287015190505b61131f85826112a1565b865550611387565b601f1984166113358661111b565b60005b8281101561135d57848901518255600182019150602085019450602081019050611338565b8683101561137a5784890151611376601f891682611283565b8355505b6001600288020188555050505b505050505050565b7f4f6e6c79204644432056657269666965722063616e207061796f757400000000600082015250565b60006113c5601c83610aac565b91506113d08261138f565b602082019050919050565b600060208201905081810360008301526113f4816113b8565b9050919050565b7f416c726561647920706169640000000000000000000000000000000000000000600082015250565b6000611431600c83610aac565b915061143c826113fb565b602082019050919050565b6000602082019050818103600083015261146081611424565b9050919050565b7f4e487b7100000000000000000000000000000000000000000000000000000000600052601160045260246000fd5b60006114a182610a6d565b91506114ac83610a6d565b92508282026114ba81610a6d565b915082820484148315176114d1576114d0611467565b5b5092915050565b60006040820190506114ed6000830185610a5e565b6114fa6020830184610a77565b9392505050565b7f5061796f7574206661696c656400000000000000000000000000000000000000600082015250565b6000611537600d83610aac565b915061154282611501565b602082019050919050565b600060208201905081810360008301526115668161152a565b905091905056fea2646970667358221220f2328b5c251e797d48b0dea0084b0c457c9069a51479faeed747f0cc5b428e5064736f6c63430008140033","opcodes":"PUSH1 0x80 PUSH1 0x40 MSTORE CALLVALUE DUP1 ISZERO PUSH3 0x11 JUMPI PUSH1 0x0 DUP1 REVERT JUMPDEST POP PUSH1 0x40 MLOAD PUSH3 0x1724 CODESIZE SUB DUP1 PUSH3 0x1724 DUP4 CODECOPY DUP2 DUP2 ADD PUSH1 0x40 MSTORE DUP2 ADD SWAP1 PUSH3 0x37 SWAP2 SWAP1 PUSH3 0x12A JUMP JUMPDEST DUP2 PUSH1 0x0 DUP1 PUSH2 0x100 EXP DUP2 SLOAD DUP2 PUSH20 0xFFFFFFFFFFFFFFFFFFFFFFFFFFFFFFFFFFFFFFFF MUL NOT AND SWAP1 DUP4 PUSH20 0xFFFFFFFFFFFFFFFFFFFFFFFFFFFFFFFFFFFFFFFF AND MUL OR SWAP1 SSTORE POP DUP1 PUSH1 0x1 PUSH1 0x0 PUSH2 0x100 EXP DUP2 SLOAD DUP2 PUSH20 0xFFFFFFFFFFFFFFFFFFFFFFFFFFFFFFFFFFFFFFFF MUL NOT AND SWAP1 DUP4 PUSH20 0xFFFFFFFFFFFFFFFFFFFFFFFFFFFFFFFFFFFFFFFF AND MUL OR SWAP1 SSTORE POP POP POP PUSH3 0x171 JUMP JUMPDEST PUSH1 0x0 DUP1 REVERT JUMPDEST PUSH1 0x0 PUSH20 0xFFFFFFFFFFFFFFFFFFFFFFFFFFFFFFFFFFFFFFFF DUP3 AND SWAP1 POP SWAP2 SWAP1 POP JUMP JUMPDEST PUSH1 0x0 PUSH3 0xF2 DUP3 PUSH3 0xC5 JUMP JUMPDEST SWAP1 POP SWAP2 SWAP1 POP JUMP JUMPDEST PUSH3 0x104 DUP2 PUSH3 0xE5 JUMP JUMPDEST DUP2 EQ PUSH3 0x110 JUMPI PUSH1 0x0 DUP1 REVERT JUMPDEST POP JUMP JUMPDEST PUSH1 0x0 DUP2 MLOAD SWAP1 POP PUSH3 0x124 DUP2 PUSH3 0xF9 JUMP JUMPDEST SWAP3 SWAP2 POP POP JUMP JUMPDEST PUSH1 0x0 DUP1 PUSH1 0x40 DUP4 DUP6 SUB SLT ISZERO PUSH3 0x144 JUMPI PUSH3 0x143 PUSH3 0xC0 JUMP JUMPDEST JUMPDEST PUSH1 0x0 PUSH3 0x154 DUP6 DUP3 DUP7 ADD PUSH3 0x113 JUMP JUMPDEST SWAP3 POP POP PUSH1 0x20 PUSH3 0x167 DUP6 DUP3 DUP7 ADD PUSH3 0x113 JUMP JUMPDEST SWAP2 POP POP SWAP3 POP SWAP3 SWAP1 POP JUMP JUMPDEST PUSH2 0x15A3 DUP1 PUSH3 0x181 PUSH1 0x0 CODECOPY PUSH1 0x0 RETURN INVALID PUSH1 0x80 PUSH1 0x40 MSTORE CALLVALUE DUP1 ISZERO PUSH2 0x10 JUMPI PUSH1 0x0 DUP1 REVERT JUMPDEST POP PUSH1 0x4 CALLDATASIZE LT PUSH2 0x62 JUMPI PUSH1 0x0 CALLDATALOAD PUSH1 0xE0 SHR DUP1 PUSH4 0x3013CE29 EQ PUSH2 0x67 JUMPI DUP1 PUSH4 0x9FE9ADA3 EQ PUSH2 0x85 JUMPI DUP1 PUSH4 0x9FF69442 EQ PUSH2 0xB9 JUMPI DUP1 PUSH4 0xBE5EFE65 EQ PUSH2 0xD5 JUMPI DUP1 PUSH4 0xE0E7E6B8 EQ PUSH2 0xF1 JUMPI DUP1 PUSH4 0xF0875F1D EQ PUSH2 0x10F JUMPI JUMPDEST PUSH1 0x0 DUP1 REVERT JUMPDEST PUSH2 0x6F PUSH2 0x12B JUMP JUMPDEST PUSH1 0x40 MLOAD PUSH2 0x7C SWAP2 SWAP1 PUSH2 0x9BA JUMP JUMPDEST PUSH1 0x40 MLOAD DUP1 SWAP2 SUB SWAP1 RETURN JUMPDEST PUSH2 0x9F PUSH1 0x4 DUP1 CALLDATASIZE SUB DUP2 ADD SWAP1 PUSH2 0x9A SWAP2 SWAP1 PUSH2 0xA1F JUMP JUMPDEST PUSH2 0x14F JUMP JUMPDEST PUSH1 0x40 MLOAD PUSH2 0xB0 SWAP6 SWAP5 SWAP4 SWAP3 SWAP2 SWAP1 PUSH2 0xB31 JUMP JUMPDEST PUSH1 0x40 MLOAD DUP1 SWAP2 SUB SWAP1 RETURN JUMPDEST PUSH2 0xD3 PUSH1 0x4 DUP1 CALLDATASIZE SUB DUP2 ADD SWAP1 PUSH2 0xCE SWAP2 SWAP1 PUSH2 0xA1F JUMP JUMPDEST PUSH2 0x25A JUMP JUMPDEST STOP JUMPDEST PUSH2 0xEF PUSH1 0x4 DUP1 CALLDATASIZE SUB DUP2 ADD SWAP1 PUSH2 0xEA SWAP2 SWAP1 PUSH2 0xCEC JUMP JUMPDEST PUSH2 0x47F JUMP JUMPDEST STOP JUMPDEST PUSH2 0xF9 PUSH2 0x70E JUMP JUMPDEST PUSH1 0x40 MLOAD PUSH2 0x106 SWAP2 SWAP1 PUSH2 0xD48 JUMP JUMPDEST PUSH1 0x40 MLOAD DUP1 SWAP2 SUB SWAP1 RETURN JUMPDEST PUSH2 0x129 PUSH1 0x4 DUP1 CALLDATASIZE SUB DUP2 ADD SWAP1 PUSH2 0x124 SWAP2 SWAP1 PUSH2 0xD8F JUMP JUMPDEST PUSH2 0x734 JUMP JUMPDEST STOP JUMPDEST PUSH1 0x0 DUP1 SLOAD SWAP1 PUSH2 0x100 EXP SWAP1 DIV PUSH20 0xFFFFFFFFFFFFFFFFFFFFFFFFFFFFFFFFFFFFFFFF AND DUP2 JUMP JUMPDEST PUSH1 0x2 PUSH1 0x20 MSTORE DUP1 PUSH1 0x0 MSTORE PUSH1 0x40 PUSH1 0x0 KECCAK256 PUSH1 0x0 SWAP2 POP SWAP1 POP DUP1 PUSH1 0x0 ADD PUSH1 0x0 SWAP1 SLOAD SWAP1 PUSH2 0x100 EXP SWAP1 DIV PUSH20 0xFFFFFFFFFFFFFFFFFFFFFFFFFFFFFFFFFFFFFFFF AND SWAP1 DUP1 PUSH1 0x1 ADD PUSH1 0x0 SWAP1 SLOAD SWAP1 PUSH2 0x100 EXP SWAP1 DIV PUSH20 0xFFFFFFFFFFFFFFFFFFFFFFFFFFFFFFFFFFFFFFFF AND SWAP1 DUP1 PUSH1 0x2 ADD SLOAD SWAP1 DUP1 PUSH1 0x3 ADD PUSH1 0x0 SWAP1 SLOAD SWAP1 PUSH2 0x100 EXP SWAP1 DIV PUSH1 0xFF AND SWAP1 DUP1 PUSH1 0x4 ADD DUP1 SLOAD PUSH2 0x1D7 SWAP1 PUSH2 0xDFE JUMP JUMPDEST DUP1 PUSH1 0x1F ADD PUSH1 0x20 DUP1 SWAP2 DIV MUL PUSH1 0x20 ADD PUSH1 0x40 MLOAD SWAP1 DUP2 ADD PUSH1 0x40 MSTORE DUP1 SWAP3 SWAP2 SWAP1 DUP2 DUP2 MSTORE PUSH1 0x20 ADD DUP3 DUP1 SLOAD PUSH2 0x203 SWAP1 PUSH2 0xDFE JUMP JUMPDEST DUP1 ISZERO PUSH2 0x250 JUMPI DUP1 PUSH1 0x1F LT PUSH2 0x225 JUMPI PUSH2 0x100 DUP1 DUP4 SLOAD DIV MUL DUP4 MSTORE SWAP2 PUSH1 0x20 ADD SWAP2 PUSH2 0x250 JUMP JUMPDEST DUP3 ADD SWAP2 SWAP1 PUSH1 0x0 MSTORE PUSH1 0x20 PUSH1 0x0 KECCAK256 SWAP1 JUMPDEST DUP2 SLOAD DUP2 MSTORE SWAP1 PUSH1 0x1 ADD SWAP1 PUSH1 0x20 ADD DUP1 DUP4 GT PUSH2 0x233 JUMPI DUP3 SWAP1 SUB PUSH1 0x1F AND DUP3 ADD SWAP2 JUMPDEST POP POP POP POP POP SWAP1 POP DUP6 JUMP JUMPDEST PUSH1 0x0 PUSH1 0x2 PUSH1 0x0 DUP4 DUP2 MSTORE PUSH1 0x20 ADD SWAP1 DUP2 MSTORE PUSH1 0x20 ADD PUSH1 0x0 KECCAK256 SWAP1 POP DUP1 PUSH1 0x3 ADD PUSH1 0x0 SWAP1 SLOAD SWAP1 PUSH2 0x100 EXP SWAP1 DIV PUSH1 0xFF AND PUSH2 0x2C2 JUMPI PUSH1 0x40 MLOAD PUSH32 0x8C379A000000000000000000000000000000000000000000000000000000000 DUP2 MSTORE PUSH1 0x4 ADD PUSH2 0x2B9 SWAP1 PUSH2 0xE7B JUMP JUMPDEST PUSH1 0x40 MLOAD DUP1 SWAP2 SUB SWAP1 REVERT JUMPDEST PUSH1 0x0 PUSH20 0xFFFFFFFFFFFFFFFFFFFFFFFFFFFFFFFFFFFFFFFF AND DUP2 PUSH1 0x1 ADD PUSH1 0x0 SWAP1 SLOAD SWAP1 PUSH2 0x100 EXP SWAP1 DIV PUSH20 0xFFFFFFFFFFFFFFFFFFFFFFFFFFFFFFFFFFFFFFFF AND PUSH20 0xFFFFFFFFFFFFFFFFFFFFFFFFFFFFFFFFFFFFFFFF AND EQ PUSH2 0x355 JUMPI PUSH1 0x40 MLOAD PUSH32 0x8C379A000000000000000000000000000000000000000000000000000000000 DUP2 MSTORE PUSH1 0x4 ADD PUSH2 0x34C SWAP1 PUSH2 0xEE7 JUMP JUMPDEST PUSH1 0x40 MLOAD DUP1 SWAP2 SUB SWAP1 REVERT JUMPDEST PUSH1 0x0 DUP1 SLOAD SWAP1 PUSH2 0x100 EXP SWAP1 DIV PUSH20 0xFFFFFFFFFFFFFFFFFFFFFFFFFFFFFFFFFFFFFFFF AND PUSH20 0xFFFFFFFFFFFFFFFFFFFFFFFFFFFFFFFFFFFFFFFF AND PUSH4 0x23B872DD CALLER ADDRESS DUP5 PUSH1 0x2 ADD SLOAD PUSH1 0x40 MLOAD DUP5 PUSH4 0xFFFFFFFF AND PUSH1 0xE0 SHL DUP2 MSTORE PUSH1 0x4 ADD PUSH2 0x3B6 SWAP4 SWAP3 SWAP2 SWAP1 PUSH2 0xF07 JUMP JUMPDEST PUSH1 0x20 PUSH1 0x40 MLOAD DUP1 DUP4 SUB DUP2 PUSH1 0x0 DUP8 GAS CALL ISZERO DUP1 ISZERO PUSH2 0x3D5 JUMPI RETURNDATASIZE PUSH1 0x0 DUP1 RETURNDATACOPY RETURNDATASIZE PUSH1 0x0 REVERT JUMPDEST POP POP POP POP PUSH1 0x40 MLOAD RETURNDATASIZE PUSH1 0x1F NOT PUSH1 0x1F DUP3 ADD AND DUP3 ADD DUP1 PUSH1 0x40 MSTORE POP DUP2 ADD SWAP1 PUSH2 0x3F9 SWAP2 SWAP1 PUSH2 0xF6A JUMP JUMPDEST PUSH2 0x438 JUMPI PUSH1 0x40 MLOAD PUSH32 0x8C379A000000000000000000000000000000000000000000000000000000000 DUP2 MSTORE PUSH1 0x4 ADD PUSH2 0x42F SWAP1 PUSH2 0xFE3 JUMP JUMPDEST PUSH1 0x40 MLOAD DUP1 SWAP2 SUB SWAP1 REVERT JUMPDEST CALLER DUP2 PUSH1 0x1 ADD PUSH1 0x0 PUSH2 0x100 EXP DUP2 SLOAD DUP2 PUSH20 0xFFFFFFFFFFFFFFFFFFFFFFFFFFFFFFFFFFFFFFFF MUL NOT AND SWAP1 DUP4 PUSH20 0xFFFFFFFFFFFFFFFFFFFFFFFFFFFFFFFFFFFFFFFF AND MUL OR SWAP1 SSTORE POP POP POP JUMP JUMPDEST PUSH1 0x0 DUP2 GT PUSH2 0x4C2 JUMPI PUSH1 0x40 MLOAD PUSH32 0x8C379A000000000000000000000000000000000000000000000000000000000 DUP2 MSTORE PUSH1 0x4 ADD PUSH2 0x4B9 SWAP1 PUSH2 0x104F JUMP JUMPDEST PUSH1 0x40 MLOAD DUP1 SWAP2 SUB SWAP1 REVERT JUMPDEST PUSH1 0x0 DUP1 SLOAD SWAP1 PUSH2 0x100 EXP SWAP1 DIV PUSH20 0xFFFFFFFFFFFFFFFFFFFFFFFFFFFFFFFFFFFFFFFF AND PUSH20 0xFFFFFFFFFFFFFFFFFFFFFFFFFFFFFFFFFFFFFFFF AND PUSH4 0x23B872DD CALLER ADDRESS DUP5 PUSH1 0x40 MLOAD DUP5 PUSH4 0xFFFFFFFF AND PUSH1 0xE0 SHL DUP2 MSTORE PUSH1 0x4 ADD PUSH2 0x51F SWAP4 SWAP3 SWAP2 SWAP1 PUSH2 0xF07 JUMP JUMPDEST PUSH1 0x20 PUSH1 0x40 MLOAD DUP1 DUP4 SUB DUP2 PUSH1 0x0 DUP8 GAS CALL ISZERO DUP1 ISZERO PUSH2 0x53E JUMPI RETURNDATASIZE PUSH1 0x0 DUP1 RETURNDATACOPY RETURNDATASIZE PUSH1 0x0 REVERT JUMPDEST POP POP POP POP PUSH1 0x40 MLOAD RETURNDATASIZE PUSH1 0x1F NOT PUSH1 0x1F DUP3 ADD AND DUP3 ADD DUP1 PUSH1 0x40 MSTORE POP DUP2 ADD SWAP1 PUSH2 0x562 SWAP2 SWAP1 PUSH2 0xF6A JUMP JUMPDEST PUSH2 0x5A1 JUMPI PUSH1 0x40 MLOAD PUSH32 0x8C379A000000000000000000000000000000000000000000000000000000000 DUP2 MSTORE PUSH1 0x4 ADD PUSH2 0x598 SWAP1 PUSH2 0xFE3 JUMP JUMPDEST PUSH1 0x40 MLOAD DUP1 SWAP2 SUB SWAP1 REVERT JUMPDEST PUSH1 0x0 DUP3 CALLER PUSH1 0x40 MLOAD PUSH1 0x20 ADD PUSH2 0x5B6 SWAP3 SWAP2 SWAP1 PUSH2 0x10F3 JUMP JUMPDEST PUSH1 0x40 MLOAD PUSH1 0x20 DUP2 DUP4 SUB SUB DUP2 MSTORE SWAP1 PUSH1 0x40 MSTORE DUP1 MLOAD SWAP1 PUSH1 0x20 ADD KECCAK256 SWAP1 POP PUSH1 0x40 MLOAD DUP1 PUSH1 0xA0 ADD PUSH1 0x40 MSTORE DUP1 CALLER PUSH20 0xFFFFFFFFFFFFFFFFFFFFFFFFFFFFFFFFFFFFFFFF AND DUP2 MSTORE PUSH1 0x20 ADD PUSH1 0x0 PUSH20 0xFFFFFFFFFFFFFFFFFFFFFFFFFFFFFFFFFFFFFFFF AND DUP2 MSTORE PUSH1 0x20 ADD DUP4 DUP2 MSTORE PUSH1 0x20 ADD PUSH1 0x1 ISZERO ISZERO DUP2 MSTORE PUSH1 0x20 ADD DUP5 DUP2 MSTORE POP PUSH1 0x2 PUSH1 0x0 DUP4 DUP2 MSTORE PUSH1 0x20 ADD SWAP1 DUP2 MSTORE PUSH1 0x20 ADD PUSH1 0x0 KECCAK256 PUSH1 0x0 DUP3 ADD MLOAD DUP2 PUSH1 0x0 ADD PUSH1 0x0 PUSH2 0x100 EXP DUP2 SLOAD DUP2 PUSH20 0xFFFFFFFFFFFFFFFFFFFFFFFFFFFFFFFFFFFFFFFF MUL NOT AND SWAP1 DUP4 PUSH20 0xFFFFFFFFFFFFFFFFFFFFFFFFFFFFFFFFFFFFFFFF AND MUL OR SWAP1 SSTORE POP PUSH1 0x20 DUP3 ADD MLOAD DUP2 PUSH1 0x1 ADD PUSH1 0x0 PUSH2 0x100 EXP DUP2 SLOAD DUP2 PUSH20 0xFFFFFFFFFFFFFFFFFFFFFFFFFFFFFFFFFFFFFFFF MUL NOT AND SWAP1 DUP4 PUSH20 0xFFFFFFFFFFFFFFFFFFFFFFFFFFFFFFFFFFFFFFFF AND MUL OR SWAP1 SSTORE POP PUSH1 0x40 DUP3 ADD MLOAD DUP2 PUSH1 0x2 ADD SSTORE PUSH1 0x60 DUP3 ADD MLOAD DUP2 PUSH1 0x3 ADD PUSH1 0x0 PUSH2 0x100 EXP DUP2 SLOAD DUP2 PUSH1 0xFF MUL NOT AND SWAP1 DUP4 ISZERO ISZERO MUL OR SWAP1 SSTORE POP PUSH1 0x80 DUP3 ADD MLOAD DUP2 PUSH1 0x4 ADD SWAP1 DUP2 PUSH2 0x705 SWAP2 SWAP1 PUSH2 0x12BD JUMP JUMPDEST POP SWAP1 POP POP POP POP POP JUMP JUMPDEST PUSH1 0x1 PUSH1 0x0 SWAP1 SLOAD SWAP1 PUSH2 0x100 EXP SWAP1 DIV PUSH20 0xFFFFFFFFFFFFFFFFFFFFFFFFFFFFFFFFFFFFFFFF AND DUP2 JUMP JUMPDEST PUSH1 0x1 PUSH1 0x0 SWAP1 SLOAD SWAP1 PUSH2 0x100 EXP SWAP1 DIV PUSH20 0xFFFFFFFFFFFFFFFFFFFFFFFFFFFFFFFFFFFFFFFF AND PUSH20 0xFFFFFFFFFFFFFFFFFFFFFFFFFFFFFFFFFFFFFFFF AND CALLER PUSH20 0xFFFFFFFFFFFFFFFFFFFFFFFFFFFFFFFFFFFFFFFF AND EQ PUSH2 0x7C4 JUMPI PUSH1 0x40 MLOAD PUSH32 0x8C379A000000000000000000000000000000000000000000000000000000000 DUP2 MSTORE PUSH1 0x4 ADD PUSH2 0x7BB SWAP1 PUSH2 0x13DB JUMP JUMPDEST PUSH1 0x40 MLOAD DUP1 SWAP2 SUB SWAP1 REVERT JUMPDEST PUSH1 0x0 PUSH1 0x2 PUSH1 0x0 DUP5 DUP2 MSTORE PUSH1 0x20 ADD SWAP1 DUP2 MSTORE PUSH1 0x20 ADD PUSH1 0x0 KECCAK256 SWAP1 POP DUP1 PUSH1 0x3 ADD PUSH1 0x0 SWAP1 SLOAD SWAP1 PUSH2 0x100 EXP SWAP1 DIV PUSH1 0xFF AND PUSH2 0x82C JUMPI PUSH1 0x40 MLOAD PUSH32 0x8C379A000000000000000000000000000000000000000000000000000000000 DUP2 MSTORE PUSH1 0x4 ADD PUSH2 0x823 SWAP1 PUSH2 0x1447 JUMP JUMPDEST PUSH1 0x40 MLOAD DUP1 SWAP2 SUB SWAP1 REVERT JUMPDEST PUSH1 0x0 DUP2 PUSH1 0x3 ADD PUSH1 0x0 PUSH2 0x100 EXP DUP2 SLOAD DUP2 PUSH1 0xFF MUL NOT AND SWAP1 DUP4 ISZERO ISZERO MUL OR SWAP1 SSTORE POP PUSH1 0x0 DUP1 SLOAD SWAP1 PUSH2 0x100 EXP SWAP1 DIV PUSH20 0xFFFFFFFFFFFFFFFFFFFFFFFFFFFFFFFFFFFFFFFF AND PUSH20 0xFFFFFFFFFFFFFFFFFFFFFFFFFFFFFFFFFFFFFFFF AND PUSH4 0xA9059CBB DUP4 PUSH1 0x2 DUP5 PUSH1 0x2 ADD SLOAD PUSH2 0x897 SWAP2 SWAP1 PUSH2 0x1496 JUMP JUMPDEST PUSH1 0x40 MLOAD DUP4 PUSH4 0xFFFFFFFF AND PUSH1 0xE0 SHL DUP2 MSTORE PUSH1 0x4 ADD PUSH2 0x8B4 SWAP3 SWAP2 SWAP1 PUSH2 0x14D8 JUMP JUMPDEST PUSH1 0x20 PUSH1 0x40 MLOAD DUP1 DUP4 SUB DUP2 PUSH1 0x0 DUP8 GAS CALL ISZERO DUP1 ISZERO PUSH2 0x8D3 JUMPI RETURNDATASIZE PUSH1 0x0 DUP1 RETURNDATACOPY RETURNDATASIZE PUSH1 0x0 REVERT JUMPDEST POP POP POP POP PUSH1 0x40 MLOAD RETURNDATASIZE PUSH1 0x1F NOT PUSH1 0x1F DUP3 ADD AND DUP3 ADD DUP1 PUSH1 0x40 MSTORE POP DUP2 ADD SWAP1 PUSH2 0x8F7 SWAP2 SWAP1 PUSH2 0xF6A JUMP JUMPDEST PUSH2 0x936 JUMPI PUSH1 0x40 MLOAD PUSH32 0x8C379A000000000000000000000000000000000000000000000000000000000 DUP2 MSTORE PUSH1 0x4 ADD PUSH2 0x92D SWAP1 PUSH2 0x154D JUMP JUMPDEST PUSH1 0x40 MLOAD DUP1 SWAP2 SUB SWAP1 REVERT JUMPDEST POP POP POP JUMP JUMPDEST PUSH1 0x0 PUSH20 0xFFFFFFFFFFFFFFFFFFFFFFFFFFFFFFFFFFFFFFFF DUP3 AND SWAP1 POP SWAP2 SWAP1 POP JUMP JUMPDEST PUSH1 0x0 DUP2 SWAP1 POP SWAP2 SWAP1 POP JUMP JUMPDEST PUSH1 0x0 PUSH2 0x980 PUSH2 0x97B PUSH2 0x976 DUP5 PUSH2 0x93B JUMP JUMPDEST PUSH2 0x95B JUMP JUMPDEST PUSH2 0x93B JUMP JUMPDEST SWAP1 POP SWAP2 SWAP1 POP JUMP JUMPDEST PUSH1 0x0 PUSH2 0x992 DUP3 PUSH2 0x965 JUMP JUMPDEST SWAP1 POP SWAP2 SWAP1 POP JUMP JUMPDEST PUSH1 0x0 PUSH2 0x9A4 DUP3 PUSH2 0x987 JUMP JUMPDEST SWAP1 POP SWAP2 SWAP1 POP JUMP JUMPDEST PUSH2 0x9B4 DUP2 PUSH2 0x999 JUMP JUMPDEST DUP3 MSTORE POP POP JUMP JUMPDEST PUSH1 0x0 PUSH1 0x20 DUP3 ADD SWAP1 POP PUSH2 0x9CF PUSH1 0x0 DUP4 ADD DUP5 PUSH2 0x9AB JUMP JUMPDEST SWAP3 SWAP2 POP POP JUMP JUMPDEST PUSH1 0x0 PUSH1 0x40 MLOAD SWAP1 POP SWAP1 JUMP JUMPDEST PUSH1 0x0 DUP1 REVERT JUMPDEST PUSH1 0x0 DUP1 REVERT JUMPDEST PUSH1 0x0 DUP2 SWAP1 POP SWAP2 SWAP1 POP JUMP JUMPDEST PUSH2 0x9FC DUP2 PUSH2 0x9E9 JUMP JUMPDEST DUP2 EQ PUSH2 0xA07 JUMPI PUSH1 0x0 DUP1 REVERT JUMPDEST POP JUMP JUMPDEST PUSH1 0x0 DUP2 CALLDATALOAD SWAP1 POP PUSH2 0xA19 DUP2 PUSH2 0x9F3 JUMP JUMPDEST SWAP3 SWAP2 POP POP JUMP JUMPDEST PUSH1 0x0 PUSH1 0x20 DUP3 DUP5 SUB SLT ISZERO PUSH2 0xA35 JUMPI PUSH2 0xA34 PUSH2 0x9DF JUMP JUMPDEST JUMPDEST PUSH1 0x0 PUSH2 0xA43 DUP5 DUP3 DUP6 ADD PUSH2 0xA0A JUMP JUMPDEST SWAP2 POP POP SWAP3 SWAP2 POP POP JUMP JUMPDEST PUSH1 0x0 PUSH2 0xA57 DUP3 PUSH2 0x93B JUMP JUMPDEST SWAP1 POP SWAP2 SWAP1 POP JUMP JUMPDEST PUSH2 0xA67 DUP2 PUSH2 0xA4C JUMP JUMPDEST DUP3 MSTORE POP POP JUMP JUMPDEST PUSH1 0x0 DUP2 SWAP1 POP SWAP2 SWAP1 POP JUMP JUMPDEST PUSH2 0xA80 DUP2 PUSH2 0xA6D JUMP JUMPDEST DUP3 MSTORE POP POP JUMP JUMPDEST PUSH1 0x0 DUP2 ISZERO ISZERO SWAP1 POP SWAP2 SWAP1 POP JUMP JUMPDEST PUSH2 0xA9B DUP2 PUSH2 0xA86 JUMP JUMPDEST DUP3 MSTORE POP POP JUMP JUMPDEST PUSH1 0x0 DUP2 MLOAD SWAP1 POP SWAP2 SWAP1 POP JUMP JUMPDEST PUSH1 0x0 DUP3 DUP3 MSTORE PUSH1 0x20 DUP3 ADD SWAP1 POP SWAP3 SWAP2 POP POP JUMP JUMPDEST PUSH1 0x0 JUMPDEST DUP4 DUP2 LT ISZERO PUSH2 0xADB JUMPI DUP1 DUP3 ADD MLOAD DUP2 DUP5 ADD MSTORE PUSH1 0x20 DUP2 ADD SWAP1 POP PUSH2 0xAC0 JUMP JUMPDEST PUSH1 0x0 DUP5 DUP5 ADD MSTORE POP POP POP POP JUMP JUMPDEST PUSH1 0x0 PUSH1 0x1F NOT PUSH1 0x1F DUP4 ADD AND SWAP1 POP SWAP2 SWAP1 POP JUMP JUMPDEST PUSH1 0x0 PUSH2 0xB03 DUP3 PUSH2 0xAA1 JUMP JUMPDEST PUSH2 0xB0D DUP2 DUP6 PUSH2 0xAAC JUMP JUMPDEST SWAP4 POP PUSH2 0xB1D DUP2 DUP6 PUSH1 0x20 DUP7 ADD PUSH2 0xABD JUMP JUMPDEST PUSH2 0xB26 DUP2 PUSH2 0xAE7 JUMP JUMPDEST DUP5 ADD SWAP2 POP POP SWAP3 SWAP2 POP POP JUMP JUMPDEST PUSH1 0x0 PUSH1 0xA0 DUP3 ADD SWAP1 POP PUSH2 0xB46 PUSH1 0x0 DUP4 ADD DUP9 PUSH2 0xA5E JUMP JUMPDEST PUSH2 0xB53 PUSH1 0x20 DUP4 ADD DUP8 PUSH2 0xA5E JUMP JUMPDEST PUSH2 0xB60 PUSH1 0x40 DUP4 ADD DUP7 PUSH2 0xA77 JUMP JUMPDEST PUSH2 0xB6D PUSH1 0x60 DUP4 ADD DUP6 PUSH2 0xA92 JUMP JUMPDEST DUP2 DUP2 SUB PUSH1 0x80 DUP4 ADD MSTORE PUSH2 0xB7F DUP2 DUP5 PUSH2 0xAF8 JUMP JUMPDEST SWAP1 POP SWAP7 SWAP6 POP POP POP POP POP POP JUMP JUMPDEST PUSH1 0x0 DUP1 REVERT JUMPDEST PUSH1 0x0 DUP1 REVERT JUMPDEST PUSH32 0x4E487B7100000000000000000000000000000000000000000000000000000000 PUSH1 0x0 MSTORE PUSH1 0x41 PUSH1 0x4 MSTORE PUSH1 0x24 PUSH1 0x0 REVERT JUMPDEST PUSH2 0xBCD DUP3 PUSH2 0xAE7 JUMP JUMPDEST DUP2 ADD DUP2 DUP2 LT PUSH8 0xFFFFFFFFFFFFFFFF DUP3 GT OR ISZERO PUSH2 0xBEC JUMPI PUSH2 0xBEB PUSH2 0xB95 JUMP JUMPDEST JUMPDEST DUP1 PUSH1 0x40 MSTORE POP POP POP JUMP JUMPDEST PUSH1 0x0 PUSH2 0xBFF PUSH2 0x9D5 JUMP JUMPDEST SWAP1 POP PUSH2 0xC0B DUP3 DUP3 PUSH2 0xBC4 JUMP JUMPDEST SWAP2 SWAP1 POP JUMP JUMPDEST PUSH1 0x0 PUSH8 0xFFFFFFFFFFFFFFFF DUP3 GT ISZERO PUSH2 0xC2B JUMPI PUSH2 0xC2A PUSH2 0xB95 JUMP JUMPDEST JUMPDEST PUSH2 0xC34 DUP3 PUSH2 0xAE7 JUMP JUMPDEST SWAP1 POP PUSH1 0x20 DUP2 ADD SWAP1 POP SWAP2 SWAP1 POP JUMP JUMPDEST DUP3 DUP2 DUP4 CALLDATACOPY PUSH1 0x0 DUP4 DUP4 ADD MSTORE POP POP POP JUMP JUMPDEST PUSH1 0x0 PUSH2 0xC63 PUSH2 0xC5E DUP5 PUSH2 0xC10 JUMP JUMPDEST PUSH2 0xBF5 JUMP JUMPDEST SWAP1 POP DUP3 DUP2 MSTORE PUSH1 0x20 DUP2 ADD DUP5 DUP5 DUP5 ADD GT ISZERO PUSH2 0xC7F JUMPI PUSH2 0xC7E PUSH2 0xB90 JUMP JUMPDEST JUMPDEST PUSH2 0xC8A DUP5 DUP3 DUP6 PUSH2 0xC41 JUMP JUMPDEST POP SWAP4 SWAP3 POP POP POP JUMP JUMPDEST PUSH1 0x0 DUP3 PUSH1 0x1F DUP4 ADD SLT PUSH2 0xCA7 JUMPI PUSH2 0xCA6 PUSH2 0xB8B JUMP JUMPDEST JUMPDEST DUP2 CALLDATALOAD PUSH2 0xCB7 DUP5 DUP3 PUSH1 0x20 DUP7 ADD PUSH2 0xC50 JUMP JUMPDEST SWAP2 POP POP SWAP3 SWAP2 POP POP JUMP JUMPDEST PUSH2 0xCC9 DUP2 PUSH2 0xA6D JUMP JUMPDEST DUP2 EQ PUSH2 0xCD4 JUMPI PUSH1 0x0 DUP1 REVERT JUMPDEST POP JUMP JUMPDEST PUSH1 0x0 DUP2 CALLDATALOAD SWAP1 POP PUSH2 0xCE6 DUP2 PUSH2 0xCC0 JUMP JUMPDEST SWAP3 SWAP2 POP POP JUMP JUMPDEST PUSH1 0x0 DUP1 PUSH1 0x40 DUP4 DUP6 SUB SLT ISZERO PUSH2 0xD03 JUMPI PUSH2 0xD02 PUSH2 0x9DF JUMP JUMPDEST JUMPDEST PUSH1 0x0 DUP4 ADD CALLDATALOAD PUSH8 0xFFFFFFFFFFFFFFFF DUP2 GT ISZERO PUSH2 0xD21 JUMPI PUSH2 0xD20 PUSH2 0x9E4 JUMP JUMPDEST JUMPDEST PUSH2 0xD2D DUP6 DUP3 DUP7 ADD PUSH2 0xC92 JUMP JUMPDEST SWAP3 POP POP PUSH1 0x20 PUSH2 0xD3E DUP6 DUP3 DUP7 ADD PUSH2 0xCD7 JUMP JUMPDEST SWAP2 POP POP SWAP3 POP SWAP3 SWAP1 POP JUMP JUMPDEST PUSH1 0x0 PUSH1 0x20 DUP3 ADD SWAP1 POP PUSH2 0xD5D PUSH1 0x0 DUP4 ADD DUP5 PUSH2 0xA5E JUMP JUMPDEST SWAP3 SWAP2 POP POP JUMP JUMPDEST PUSH2 0xD6C DUP2 PUSH2 0xA4C JUMP JUMPDEST DUP2 EQ PUSH2 0xD77 JUMPI PUSH1 0x0 DUP1 REVERT JUMPDEST POP JUMP JUMPDEST PUSH1 0x0 DUP2 CALLDATALOAD SWAP1 POP PUSH2 0xD89 DUP2 PUSH2 0xD63 JUMP JUMPDEST SWAP3 SWAP2 POP POP JUMP JUMPDEST PUSH1 0x0 DUP1 PUSH1 0x40 DUP4 DUP6 SUB SLT ISZERO PUSH2 0xDA6 JUMPI PUSH2 0xDA5 PUSH2 0x9DF JUMP JUMPDEST JUMPDEST PUSH1 0x0 PUSH2 0xDB4 DUP6 DUP3 DUP7 ADD PUSH2 0xA0A JUMP JUMPDEST SWAP3 POP POP PUSH1 0x20 PUSH2 0xDC5 DUP6 DUP3 DUP7 ADD PUSH2 0xD7A JUMP JUMPDEST SWAP2 POP POP SWAP3 POP SWAP3 SWAP1 POP JUMP JUMPDEST PUSH32 0x4E487B7100000000000000000000000000000000000000000000000000000000 PUSH1 0x0 MSTORE PUSH1 0x22 PUSH1 0x4 MSTORE PUSH1 0x24 PUSH1 0x0 REVERT JUMPDEST PUSH1 0x0 PUSH1 0x2 DUP3 DIV SWAP1 POP PUSH1 0x1 DUP3 AND DUP1 PUSH2 0xE16 JUMPI PUSH1 0x7F DUP3 AND SWAP2 POP JUMPDEST PUSH1 0x20 DUP3 LT DUP2 SUB PUSH2 0xE29 JUMPI PUSH2 0xE28 PUSH2 0xDCF JUMP JUMPDEST JUMPDEST POP SWAP2 SWAP1 POP JUMP JUMPDEST PUSH32 0x496E616374697665206D61746368000000000000000000000000000000000000 PUSH1 0x0 DUP3 ADD MSTORE POP JUMP JUMPDEST PUSH1 0x0 PUSH2 0xE65 PUSH1 0xE DUP4 PUSH2 0xAAC JUMP JUMPDEST SWAP2 POP PUSH2 0xE70 DUP3 PUSH2 0xE2F JUMP JUMPDEST PUSH1 0x20 DUP3 ADD SWAP1 POP SWAP2 SWAP1 POP JUMP JUMPDEST PUSH1 0x0 PUSH1 0x20 DUP3 ADD SWAP1 POP DUP2 DUP2 SUB PUSH1 0x0 DUP4 ADD MSTORE PUSH2 0xE94 DUP2 PUSH2 0xE58 JUMP JUMPDEST SWAP1 POP SWAP2 SWAP1 POP JUMP JUMPDEST PUSH32 0x4D617463682066756C6C00000000000000000000000000000000000000000000 PUSH1 0x0 DUP3 ADD MSTORE POP JUMP JUMPDEST PUSH1 0x0 PUSH2 0xED1 PUSH1 0xA DUP4 PUSH2 0xAAC JUMP JUMPDEST SWAP2 POP PUSH2 0xEDC DUP3 PUSH2 0xE9B JUMP JUMPDEST PUSH1 0x20 DUP3 ADD SWAP1 POP SWAP2 SWAP1 POP JUMP JUMPDEST PUSH1 0x0 PUSH1 0x20 DUP3 ADD SWAP1 POP DUP2 DUP2 SUB PUSH1 0x0 DUP4 ADD MSTORE PUSH2 0xF00 DUP2 PUSH2 0xEC4 JUMP JUMPDEST SWAP1 POP SWAP2 SWAP1 POP JUMP JUMPDEST PUSH1 0x0 PUSH1 0x60 DUP3 ADD SWAP1 POP PUSH2 0xF1C PUSH1 0x0 DUP4 ADD DUP7 PUSH2 0xA5E JUMP JUMPDEST PUSH2 0xF29 PUSH1 0x20 DUP4 ADD DUP6 PUSH2 0xA5E JUMP JUMPDEST PUSH2 0xF36 PUSH1 0x40 DUP4 ADD DUP5 PUSH2 0xA77 JUMP JUMPDEST SWAP5 SWAP4 POP POP POP POP JUMP JUMPDEST PUSH2 0xF47 DUP2 PUSH2 0xA86 JUMP JUMPDEST DUP2 EQ PUSH2 0xF52 JUMPI PUSH1 0x0 DUP1 REVERT JUMPDEST POP JUMP JUMPDEST PUSH1 0x0 DUP2 MLOAD SWAP1 POP PUSH2 0xF64 DUP2 PUSH2 0xF3E JUMP JUMPDEST SWAP3 SWAP2 POP POP JUMP JUMPDEST PUSH1 0x0 PUSH1 0x20 DUP3 DUP5 SUB SLT ISZERO PUSH2 0xF80 JUMPI PUSH2 0xF7F PUSH2 0x9DF JUMP JUMPDEST JUMPDEST PUSH1 0x0 PUSH2 0xF8E DUP5 DUP3 DUP6 ADD PUSH2 0xF55 JUMP JUMPDEST SWAP2 POP POP SWAP3 SWAP2 POP POP JUMP JUMPDEST PUSH32 0x5472616E73666572206661696C65640000000000000000000000000000000000 PUSH1 0x0 DUP3 ADD MSTORE POP JUMP JUMPDEST PUSH1 0x0 PUSH2 0xFCD PUSH1 0xF DUP4 PUSH2 0xAAC JUMP JUMPDEST SWAP2 POP PUSH2 0xFD8 DUP3 PUSH2 0xF97 JUMP JUMPDEST PUSH1 0x20 DUP3 ADD SWAP1 POP SWAP2 SWAP1 POP JUMP JUMPDEST PUSH1 0x0 PUSH1 0x20 DUP3 ADD SWAP1 POP DUP2 DUP2 SUB PUSH1 0x0 DUP4 ADD MSTORE PUSH2 0xFFC DUP2 PUSH2 0xFC0 JUMP JUMPDEST SWAP1 POP SWAP2 SWAP1 POP JUMP JUMPDEST PUSH32 0x5A65726F20776167657200000000000000000000000000000000000000000000 PUSH1 0x0 DUP3 ADD MSTORE POP JUMP JUMPDEST PUSH1 0x0 PUSH2 0x1039 PUSH1 0xA DUP4 PUSH2 0xAAC JUMP JUMPDEST SWAP2 POP PUSH2 0x1044 DUP3 PUSH2 0x1003 JUMP JUMPDEST PUSH1 0x20 DUP3 ADD SWAP1 POP SWAP2 SWAP1 POP JUMP JUMPDEST PUSH1 0x0 PUSH1 0x20 DUP3 ADD SWAP1 POP DUP2 DUP2 SUB PUSH1 0x0 DUP4 ADD MSTORE PUSH2 0x1068 DUP2 PUSH2 0x102C JUMP JUMPDEST SWAP1 POP SWAP2 SWAP1 POP JUMP JUMPDEST PUSH1 0x0 DUP2 SWAP1 POP SWAP3 SWAP2 POP POP JUMP JUMPDEST PUSH1 0x0 PUSH2 0x1085 DUP3 PUSH2 0xAA1 JUMP JUMPDEST PUSH2 0x108F DUP2 DUP6 PUSH2 0x106F JUMP JUMPDEST SWAP4 POP PUSH2 0x109F DUP2 DUP6 PUSH1 0x20 DUP7 ADD PUSH2 0xABD JUMP JUMPDEST DUP1 DUP5 ADD SWAP2 POP POP SWAP3 SWAP2 POP POP JUMP JUMPDEST PUSH1 0x0 DUP2 PUSH1 0x60 SHL SWAP1 POP SWAP2 SWAP1 POP JUMP JUMPDEST PUSH1 0x0 PUSH2 0x10C3 DUP3 PUSH2 0x10AB JUMP JUMPDEST SWAP1 POP SWAP2 SWAP1 POP JUMP JUMPDEST PUSH1 0x0 PUSH2 0x10D5 DUP3 PUSH2 0x10B8 JUMP JUMPDEST SWAP1 POP SWAP2 SWAP1 POP JUMP JUMPDEST PUSH2 0x10ED PUSH2 0x10E8 DUP3 PUSH2 0xA4C JUMP JUMPDEST PUSH2 0x10CA JUMP JUMPDEST DUP3 MSTORE POP POP JUMP JUMPDEST PUSH1 0x0 PUSH2 0x10FF DUP3 DUP6 PUSH2 0x107A JUMP JUMPDEST SWAP2 POP PUSH2 0x110B DUP3 DUP5 PUSH2 0x10DC JUMP JUMPDEST PUSH1 0x14 DUP3 ADD SWAP2 POP DUP2 SWAP1 POP SWAP4 SWAP3 POP POP POP JUMP JUMPDEST PUSH1 0x0 DUP2 SWAP1 POP DUP2 PUSH1 0x0 MSTORE PUSH1 0x20 PUSH1 0x0 KECCAK256 SWAP1 POP SWAP2 SWAP1 POP JUMP JUMPDEST PUSH1 0x0 PUSH1 0x20 PUSH1 0x1F DUP4 ADD DIV SWAP1 POP SWAP2 SWAP1 POP JUMP JUMPDEST PUSH1 0x0 DUP3 DUP3 SHL SWAP1 POP SWAP3 SWAP2 POP POP JUMP JUMPDEST PUSH1 0x0 PUSH1 0x8 DUP4 MUL PUSH2 0x117D PUSH32 0xFFFFFFFFFFFFFFFFFFFFFFFFFFFFFFFFFFFFFFFFFFFFFFFFFFFFFFFFFFFFFFFF DUP3 PUSH2 0x1140 JUMP JUMPDEST PUSH2 0x1187 DUP7 DUP4 PUSH2 0x1140 JUMP JUMPDEST SWAP6 POP DUP1 NOT DUP5 AND SWAP4 POP DUP1 DUP7 AND DUP5 OR SWAP3 POP POP POP SWAP4 SWAP3 POP POP POP JUMP JUMPDEST PUSH1 0x0 PUSH2 0x11BA PUSH2 0x11B5 PUSH2 0x11B0 DUP5 PUSH2 0xA6D JUMP JUMPDEST PUSH2 0x95B JUMP JUMPDEST PUSH2 0xA6D JUMP JUMPDEST SWAP1 POP SWAP2 SWAP1 POP JUMP JUMPDEST PUSH1 0x0 DUP2 SWAP1 POP SWAP2 SWAP1 POP JUMP JUMPDEST PUSH2 0x11D4 DUP4 PUSH2 0x119F JUMP JUMPDEST PUSH2 0x11E8 PUSH2 0x11E0 DUP3 PUSH2 0x11C1 JUMP JUMPDEST DUP5 DUP5 SLOAD PUSH2 0x114D JUMP JUMPDEST DUP3 SSTORE POP POP POP POP JUMP JUMPDEST PUSH1 0x0 SWAP1 JUMP JUMPDEST PUSH2 0x11FD PUSH2 0x11F0 JUMP JUMPDEST PUSH2 0x1208 DUP2 DUP5 DUP5 PUSH2 0x11CB JUMP JUMPDEST POP POP POP JUMP JUMPDEST JUMPDEST DUP2 DUP2 LT ISZERO PUSH2 0x122C JUMPI PUSH2 0x1221 PUSH1 0x0 DUP3 PUSH2 0x11F5 JUMP JUMPDEST PUSH1 0x1 DUP2 ADD SWAP1 POP PUSH2 0x120E JUMP JUMPDEST POP POP JUMP JUMPDEST PUSH1 0x1F DUP3 GT ISZERO PUSH2 0x1271 JUMPI PUSH2 0x1242 DUP2 PUSH2 0x111B JUMP JUMPDEST PUSH2 0x124B DUP5 PUSH2 0x1130 JUMP JUMPDEST DUP2 ADD PUSH1 0x20 DUP6 LT ISZERO PUSH2 0x125A JUMPI DUP2 SWAP1 POP JUMPDEST PUSH2 0x126E PUSH2 0x1266 DUP6 PUSH2 0x1130 JUMP JUMPDEST DUP4 ADD DUP3 PUSH2 0x120D JUMP JUMPDEST POP POP JUMPDEST POP POP POP JUMP JUMPDEST PUSH1 0x0 DUP3 DUP3 SHR SWAP1 POP SWAP3 SWAP2 POP POP JUMP JUMPDEST PUSH1 0x0 PUSH2 0x1294 PUSH1 0x0 NOT DUP5 PUSH1 0x8 MUL PUSH2 0x1276 JUMP JUMPDEST NOT DUP1 DUP4 AND SWAP2 POP POP SWAP3 SWAP2 POP POP JUMP JUMPDEST PUSH1 0x0 PUSH2 0x12AD DUP4 DUP4 PUSH2 0x1283 JUMP JUMPDEST SWAP2 POP DUP3 PUSH1 0x2 MUL DUP3 OR SWAP1 POP SWAP3 SWAP2 POP POP JUMP JUMPDEST PUSH2 0x12C6 DUP3 PUSH2 0xAA1 JUMP JUMPDEST PUSH8 0xFFFFFFFFFFFFFFFF DUP2 GT ISZERO PUSH2 0x12DF JUMPI PUSH2 0x12DE PUSH2 0xB95 JUMP JUMPDEST JUMPDEST PUSH2 0x12E9 DUP3 SLOAD PUSH2 0xDFE JUMP JUMPDEST PUSH2 0x12F4 DUP3 DUP3 DUP6 PUSH2 0x1230 JUMP JUMPDEST PUSH1 0x0 PUSH1 0x20 SWAP1 POP PUSH1 0x1F DUP4 GT PUSH1 0x1 DUP2 EQ PUSH2 0x1327 JUMPI PUSH1 0x0 DUP5 ISZERO PUSH2 0x1315 JUMPI DUP3 DUP8 ADD MLOAD SWAP1 POP JUMPDEST PUSH2 0x131F DUP6 DUP3 PUSH2 0x12A1 JUMP JUMPDEST DUP7 SSTORE POP PUSH2 0x1387 JUMP JUMPDEST PUSH1 0x1F NOT DUP5 AND PUSH2 0x1335 DUP7 PUSH2 0x111B JUMP JUMPDEST PUSH1 0x0 JUMPDEST DUP3 DUP2 LT ISZERO PUSH2 0x135D JUMPI DUP5 DUP10 ADD MLOAD DUP3 SSTORE PUSH1 0x1 DUP3 ADD SWAP2 POP PUSH1 0x20 DUP6 ADD SWAP5 POP PUSH1 0x20 DUP2 ADD SWAP1 POP PUSH2 0x1338 JUMP JUMPDEST DUP7 DUP4 LT ISZERO PUSH2 0x137A JUMPI DUP5 DUP10 ADD MLOAD PUSH2 0x1376 PUSH1 0x1F DUP10 AND DUP3 PUSH2 0x1283 JUMP JUMPDEST DUP4 SSTORE POP JUMPDEST PUSH1 0x1 PUSH1 0x2 DUP9 MUL ADD DUP9 SSTORE POP POP POP JUMPDEST POP POP POP POP POP POP JUMP JUMPDEST PUSH32 0x4F6E6C79204644432056657269666965722063616E207061796F757400000000 PUSH1 0x0 DUP3 ADD MSTORE POP JUMP JUMPDEST PUSH1 0x0 PUSH2 0x13C5 PUSH1 0x1C DUP4 PUSH2 0xAAC JUMP JUMPDEST SWAP2 POP PUSH2 0x13D0 DUP3 PUSH2 0x138F JUMP JUMPDEST PUSH1 0x20 DUP3 ADD SWAP1 POP SWAP2 SWAP1 POP JUMP JUMPDEST PUSH1 0x0 PUSH1 0x20 DUP3 ADD SWAP1 POP DUP2 DUP2 SUB PUSH1 0x0 DUP4 ADD MSTORE PUSH2 0x13F4 DUP2 PUSH2 0x13B8 JUMP JUMPDEST SWAP1 POP SWAP2 SWAP1 POP JUMP JUMPDEST PUSH32 0x416C726561647920706169640000000000000000000000000000000000000000 PUSH1 0x0 DUP3 ADD MSTORE POP JUMP JUMPDEST PUSH1 0x0 PUSH2 0x1431 PUSH1 0xC DUP4 PUSH2 0xAAC JUMP JUMPDEST SWAP2 POP PUSH2 0x143C DUP3 PUSH2 0x13FB JUMP JUMPDEST PUSH1 0x20 DUP3 ADD SWAP1 POP SWAP2 SWAP1 POP JUMP JUMPDEST PUSH1 0x0 PUSH1 0x20 DUP3 ADD SWAP1 POP DUP2 DUP2 SUB PUSH1 0x0 DUP4 ADD MSTORE PUSH2 0x1460 DUP2 PUSH2 0x1424 JUMP JUMPDEST SWAP1 POP SWAP2 SWAP1 POP JUMP JUMPDEST PUSH32 0x4E487B7100000000000000000000000000000000000000000000000000000000 PUSH1 0x0 MSTORE PUSH1 0x11 PUSH1 0x4 MSTORE PUSH1 0x24 PUSH1 0x0 REVERT JUMPDEST PUSH1 0x0 PUSH2 0x14A1 DUP3 PUSH2 0xA6D JUMP JUMPDEST SWAP2 POP PUSH2 0x14AC DUP4 PUSH2 0xA6D JUMP JUMPDEST SWAP3 POP DUP3 DUP3 MUL PUSH2 0x14BA DUP2 PUSH2 0xA6D JUMP JUMPDEST SWAP2 POP DUP3 DUP3 DIV DUP5 EQ DUP4 ISZERO OR PUSH2 0x14D1 JUMPI PUSH2 0x14D0 PUSH2 0x1467 JUMP JUMPDEST JUMPDEST POP SWAP3 SWAP2 POP POP JUMP JUMPDEST PUSH1 0x0 PUSH1 0x40 DUP3 ADD SWAP1 POP PUSH2 0x14ED PUSH1 0x0 DUP4 ADD DUP6 PUSH2 0xA5E JUMP JUMPDEST PUSH2 0x14FA PUSH1 0x20 DUP4 ADD DUP5 PUSH2 0xA77 JUMP JUMPDEST SWAP4 SWAP3 POP POP POP JUMP JUMPDEST PUSH32 0x5061796F7574206661696C656400000000000000000000000000000000000000 PUSH1 0x0 DUP3 ADD MSTORE POP JUMP JUMPDEST PUSH1 0x0 PUSH2 0x1537 PUSH1 0xD DUP4 PUSH2 0xAAC JUMP JUMPDEST SWAP2 POP PUSH2 0x1542 DUP3 PUSH2 0x1501 JUMP JUMPDEST PUSH1 0x20 DUP3 ADD SWAP1 POP SWAP2 SWAP1 POP JUMP JUMPDEST PUSH1 0x0 PUSH1 0x20 DUP3 ADD SWAP1 POP DUP2 DUP2 SUB PUSH1 0x0 DUP4 ADD MSTORE PUSH2 0x1566 DUP2 PUSH2 0x152A JUMP JUMPDEST SWAP1 POP SWAP2 SWAP1 POP JUMP INVALID LOG2 PUSH5 0x6970667358 0x22 SLT KECCAK256 CALLCODE ORIGIN DUP12 0x5C 0x25 0x1E PUSH26 0x7D48B0DEA0084B0C457C9069A51479FAEED747F0CC5B428E5064 PUSH20 0x6F6C634300081400330000000000000000000000 "},"methodIdentifiers":{"createMatch(string,uint256)":"be5efe65","fdcVerifier()":"e0e7e6b8","joinMatch(bytes32)":"9ff69442","matches(bytes32)":"9fe9ada3","paymentToken()":"3013ce29","payoutWinner(bytes32,address)":"f0875f1d"}}}}}