{
  "_format": "hh-sol-artifact-1",
  "contractName": "FairPlay",
  "sourceName": "contracts/FairPlay.sol",
  "abi": [
    {
      "inputs": [
        {
          "internalType": "address",
          "name": "_tokenAddress",
          "type": "address"
        },
        {
          "internalType": "address",
          "name": "_verifier",
          "type": "address"
        }
      ],
      "stateMutability": "nonpayable",
      "type": "constructor"
    },
    {
      "inputs": [
        {
          "internalType": "string",
          "name": "_gameId",
          "type": "string"
        },
        {
          "internalType": "uint256",
          "name": "_amount",
          "type": "uint256"
        }
      ],
      "name": "createMatch",
      "outputs": [],
      "stateMutability": "nonpayable",
      "type": "function"
    },
    {
      "inputs": [],
      "name": "fdcVerifier",
      "outputs": [
        {
          "internalType": "address",
          "name": "",
          "type": "address"
        }
      ],
      "stateMutability": "view",
      "type": "function"
    },
    {
      "inputs": [
        {
          "internalType": "bytes32",
          "name": "_matchHash",
          "type": "bytes32"
        }
      ],
      "name": "joinMatch",
      "outputs": [],
      "stateMutability": "nonpayable",
      "type": "function"
    },
    {
      "inputs": [
        {
          "internalType": "bytes32",
          "name": "_matchHash",
          "type": "bytes32"
        },
        {
          "internalType": "address",
          "name": "_player",
          "type": "address"
        }
      ],
      "name": "joinMatchFor",
      "outputs": [],
      "stateMutability": "nonpayable",
      "type": "function"
    },
    {
      "inputs": [
        {
          "internalType": "bytes32",
          "name": "",
          "type": "bytes32"
        }
      ],
      "name": "matches",
      "outputs": [
        {
          "internalType": "address",
          "name": "player1",
          "type": "address"
        },
        {
          "internalType": "address",
          "name": "player2",
          "type": "address"
        },
        {
          "internalType": "uint256",
          "name": "wagerAmount",
          "type": "uint256"
        },
        {
          "internalType": "bool",
          "name": "isActive",
          "type": "bool"
        },
        {
          "internalType": "string",
          "name": "gameId",
          "type": "string"
        }
      ],
      "stateMutability": "view",
      "type": "function"
    },
    {
      "inputs": [],
      "name": "paymentToken",
      "outputs": [
        {
          "internalType": "contract IERC20",
          "name": "",
          "type": "address"
        }
      ],
      "stateMutability": "view",
      "type": "function"
    },
    {
      "inputs": [
        {
          "internalType": "address",
          "name": "_controller",
          "type": "address"
        }
      ],
      "name": "setController",
      "outputs": [],
      "stateMutability": "nonpayable",
      "type": "function"
    },
    {
      "inputs": [],
      "name": "smartAccountController",
      "outputs": [
        {
          "internalType": "address",
          "name": "",
          "type": "address"
        }
      ],
      "stateMutability": "view",
      "type": "function"
    }
  ],
  "bytecode": "0x60806040523480156200001157600080fd5b50604051620017583803806200175883398181016040528101906200003791906200012a565b816000806101000a81548173ffffffffffffffffffffffffffffffffffffffff021916908373ffffffffffffffffffffffffffffffffffffffff16021790555080600160006101000a81548173ffffffffffffffffffffffffffffffffffffffff021916908373ffffffffffffffffffffffffffffffffffffffff160217905550505062000171565b600080fd5b600073ffffffffffffffffffffffffffffffffffffffff82169050919050565b6000620000f282620000c5565b9050919050565b6200010481620000e5565b81146200011057600080fd5b50565b6000815190506200012481620000f9565b92915050565b60008060408385031215620001445762000143620000c0565b5b6000620001548582860162000113565b9250506020620001678582860162000113565b9150509250929050565b6115d780620001816000396000f3fe608060405234801561001057600080fd5b50600436106100885760003560e01c80639ff694421161005b5780639ff6944214610119578063be5efe6514610135578063e0e7e6b814610151578063e45bc69a1461016f57610088565b80633013ce291461008d57806344a3438d146100ab57806392eefe9b146100c95780639fe9ada3146100e5575b600080fd5b61009561018b565b6040516100a29190610b33565b60405180910390f35b6100b36101af565b6040516100c09190610b6f565b60405180910390f35b6100e360048036038101906100de9190610bca565b6101d5565b005b6100ff60048036038101906100fa9190610c2d565b610219565b604051610110959493929190610d1e565b60405180910390f35b610133600480360381019061012e9190610c2d565b610324565b005b61014f600480360381019061014a9190610ed9565b610549565b005b6101596107d8565b6040516101669190610b6f565b60405180910390f35b61018960048036038101906101849190610f35565b6107fe565b005b60008054906101000a900473ffffffffffffffffffffffffffffffffffffffff1681565b600360009054906101000a900473ffffffffffffffffffffffffffffffffffffffff1681565b80600360006101000a81548173ffffffffffffffffffffffffffffffffffffffff021916908373ffffffffffffffffffffffffffffffffffffffff16021790555050565b60026020528060005260406000206000915090508060000160009054906101000a900473ffffffffffffffffffffffffffffffffffffffff16908060010160009054906101000a900473ffffffffffffffffffffffffffffffffffffffff16908060020154908060030160009054906101000a900460ff16908060040180546102a190610fa4565b80601f01602080910402602001604051908101604052809291908181526020018280546102cd90610fa4565b801561031a5780601f106102ef5761010080835404028352916020019161031a565b820191906000526020600020905b8154815290600101906020018083116102fd57829003601f168201915b5050505050905085565b60006002600083815260200190815260200160002090508060030160009054906101000a900460ff1661038c576040517f08c379a000000000000000000000000000000000000000000000000000000000815260040161038390611021565b60405180910390fd5b600073ffffffffffffffffffffffffffffffffffffffff168160010160009054906101000a900473ffffffffffffffffffffffffffffffffffffffff1673ffffffffffffffffffffffffffffffffffffffff161461041f576040517f08c379a00000000000000000000000000000000000000000000000000000000081526004016104169061108d565b60405180910390fd5b60008054906101000a900473ffffffffffffffffffffffffffffffffffffffff1673ffffffffffffffffffffffffffffffffffffffff166323b872dd333084600201546040518463ffffffff1660e01b8152600401610480939291906110ad565b6020604051808303816000875af115801561049f573d6000803e3d6000fd5b505050506040513d601f19601f820116820180604052508101906104c39190611110565b610502576040517f08c379a00000000000000000000000000000000000000000000000000000000081526004016104f990611189565b60405180910390fd5b338160010160006101000a81548173ffffffffffffffffffffffffffffffffffffffff021916908373ffffffffffffffffffffffffffffffffffffffff1602179055505050565b6000811161058c576040517f08c379a0000000000000000000000000000000000000000000000000000000008152600401610583906111f5565b60405180910390fd5b60008054906101000a900473ffffffffffffffffffffffffffffffffffffffff1673ffffffffffffffffffffffffffffffffffffffff166323b872dd3330846040518463ffffffff1660e01b81526004016105e9939291906110ad565b6020604051808303816000875af1158015610608573d6000803e3d6000fd5b505050506040513d601f19601f8201168201806040525081019061062c9190611110565b61066b576040517f08c379a000000000000000000000000000000000000000000000000000000000815260040161066290611189565b60405180910390fd5b60008233604051602001610680929190611299565b6040516020818303038152906040528051906020012090506040518060a001604052803373ffffffffffffffffffffffffffffffffffffffff168152602001600073ffffffffffffffffffffffffffffffffffffffff168152602001838152602001600115158152602001848152506002600083815260200190815260200160002060008201518160000160006101000a81548173ffffffffffffffffffffffffffffffffffffffff021916908373ffffffffffffffffffffffffffffffffffffffff16021790555060208201518160010160006101000a81548173ffffffffffffffffffffffffffffffffffffffff021916908373ffffffffffffffffffffffffffffffffffffffff1602179055506040820151816002015560608201518160030160006101000a81548160ff02191690831515021790555060808201518160040190816107cf9190611463565b50905050505050565b600160009054906101000a900473ffffffffffffffffffffffffffffffffffffffff1681565b600360009054906101000a900473ffffffffffffffffffffffffffffffffffffffff1673ffffffffffffffffffffffffffffffffffffffff163373ffffffffffffffffffffffffffffffffffffffff161461088e576040517f08c379a000000000000000000000000000000000000000000000000000000000815260040161088590611581565b60405180910390fd5b60006002600084815260200190815260200160002090508060030160009054906101000a900460ff166108f6576040517f08c379a00000000000000000000000000000000000000000000000000000000081526004016108ed90611021565b60405180910390fd5b600073ffffffffffffffffffffffffffffffffffffffff168160010160009054906101000a900473ffffffffffffffffffffffffffffffffffffffff1673ffffffffffffffffffffffffffffffffffffffff1614610989576040517f08c379a00000000000000000000000000000000000000000000000000000000081526004016109809061108d565b60405180910390fd5b60008054906101000a900473ffffffffffffffffffffffffffffffffffffffff1673ffffffffffffffffffffffffffffffffffffffff166323b872dd333084600201546040518463ffffffff1660e01b81526004016109ea939291906110ad565b6020604051808303816000875af1158015610a09573d6000803e3d6000fd5b505050506040513d601f19601f82011682018060405250810190610a2d9190611110565b610a6c576040517f08c379a0000000000000000000000000000000000000000000000000000000008152600401610a6390611189565b60405180910390fd5b818160010160006101000a81548173ffffffffffffffffffffffffffffffffffffffff021916908373ffffffffffffffffffffffffffffffffffffffff160217905550505050565b600073ffffffffffffffffffffffffffffffffffffffff82169050919050565b6000819050919050565b6000610af9610af4610aef84610ab4565b610ad4565b610ab4565b9050919050565b6000610b0b82610ade565b9050919050565b6000610b1d82610b00565b9050919050565b610b2d81610b12565b82525050565b6000602082019050610b486000830184610b24565b92915050565b6000610b5982610ab4565b9050919050565b610b6981610b4e565b82525050565b6000602082019050610b846000830184610b60565b92915050565b6000604051905090565b600080fd5b600080fd5b610ba781610b4e565b8114610bb257600080fd5b50565b600081359050610bc481610b9e565b92915050565b600060208284031215610be057610bdf610b94565b5b6000610bee84828501610bb5565b91505092915050565b6000819050919050565b610c0a81610bf7565b8114610c1557600080fd5b50565b600081359050610c2781610c01565b92915050565b600060208284031215610c4357610c42610b94565b5b6000610c5184828501610c18565b91505092915050565b6000819050919050565b610c6d81610c5a565b82525050565b60008115159050919050565b610c8881610c73565b82525050565b600081519050919050565b600082825260208201905092915050565b60005b83811015610cc8578082015181840152602081019050610cad565b60008484015250505050565b6000601f19601f8301169050919050565b6000610cf082610c8e565b610cfa8185610c99565b9350610d0a818560208601610caa565b610d1381610cd4565b840191505092915050565b600060a082019050610d336000830188610b60565b610d406020830187610b60565b610d4d6040830186610c64565b610d5a6060830185610c7f565b8181036080830152610d6c8184610ce5565b90509695505050505050565b600080fd5b600080fd5b7f4e487b7100000000000000000000000000000000000000000000000000000000600052604160045260246000fd5b610dba82610cd4565b810181811067ffffffffffffffff82111715610dd957610dd8610d82565b5b80604052505050565b6000610dec610b8a565b9050610df88282610db1565b919050565b600067ffffffffffffffff821115610e1857610e17610d82565b5b610e2182610cd4565b9050602081019050919050565b82818337600083830152505050565b6000610e50610e4b84610dfd565b610de2565b905082815260208101848484011115610e6c57610e6b610d7d565b5b610e77848285610e2e565b509392505050565b600082601f830112610e9457610e93610d78565b5b8135610ea4848260208601610e3d565b91505092915050565b610eb681610c5a565b8114610ec157600080fd5b50565b600081359050610ed381610ead565b92915050565b60008060408385031215610ef057610eef610b94565b5b600083013567ffffffffffffffff811115610f0e57610f0d610b99565b5b610f1a85828601610e7f565b9250506020610f2b85828601610ec4565b9150509250929050565b60008060408385031215610f4c57610f4b610b94565b5b6000610f5a85828601610c18565b9250506020610f6b85828601610bb5565b9150509250929050565b7f4e487b7100000000000000000000000000000000000000000000000000000000600052602260045260246000fd5b60006002820490506001821680610fbc57607f821691505b602082108103610fcf57610fce610f75565b5b50919050565b7f496e616374697665206d61746368000000000000000000000000000000000000600082015250565b600061100b600e83610c99565b915061101682610fd5565b602082019050919050565b6000602082019050818103600083015261103a81610ffe565b9050919050565b7f4d617463682066756c6c00000000000000000000000000000000000000000000600082015250565b6000611077600a83610c99565b915061108282611041565b602082019050919050565b600060208201905081810360008301526110a68161106a565b9050919050565b60006060820190506110c26000830186610b60565b6110cf6020830185610b60565b6110dc6040830184610c64565b949350505050565b6110ed81610c73565b81146110f857600080fd5b50565b60008151905061110a816110e4565b92915050565b60006020828403121561112657611125610b94565b5b6000611134848285016110fb565b91505092915050565b7f5472616e73666572206661696c65640000000000000000000000000000000000600082015250565b6000611173600f83610c99565b915061117e8261113d565b602082019050919050565b600060208201905081810360008301526111a281611166565b9050919050565b7f5a65726f20776167657200000000000000000000000000000000000000000000600082015250565b60006111df600a83610c99565b91506111ea826111a9565b602082019050919050565b6000602082019050818103600083015261120e816111d2565b9050919050565b600081905092915050565b600061122b82610c8e565b6112358185611215565b9350611245818560208601610caa565b80840191505092915050565b60008160601b9050919050565b600061126982611251565b9050919050565b600061127b8261125e565b9050919050565b61129361128e82610b4e565b611270565b82525050565b60006112a58285611220565b91506112b18284611282565b6014820191508190509392505050565b60008190508160005260206000209050919050565b60006020601f8301049050919050565b600082821b905092915050565b6000600883026113237fffffffffffffffffffffffffffffffffffffffffffffffffffffffffffffffff826112e6565b61132d86836112e6565b95508019841693508086168417925050509392505050565b600061136061135b61135684610c5a565b610ad4565b610c5a565b9050919050565b6000819050919050565b61137a83611345565b61138e61138682611367565b8484546112f3565b825550505050565b600090565b6113a3611396565b6113ae818484611371565b505050565b5b818110156113d2576113c760008261139b565b6001810190506113b4565b5050565b601f821115611417576113e8816112c1565b6113f1846112d6565b81016020851015611400578190505b61141461140c856112d6565b8301826113b3565b50505b505050565b600082821c905092915050565b600061143a6000198460080261141c565b1980831691505092915050565b60006114538383611429565b9150826002028217905092915050565b61146c82610c8e565b67ffffffffffffffff81111561148557611484610d82565b5b61148f8254610fa4565b61149a8282856113d6565b600060209050601f8311600181146114cd57600084156114bb578287015190505b6114c58582611447565b86555061152d565b601f1984166114db866112c1565b60005b82811015611503578489015182556001820191506020850194506020810190506114de565b86831015611520578489015161151c601f891682611429565b8355505b6001600288020188555050505b505050505050565b7f556e617574686f72697a65640000000000000000000000000000000000000000600082015250565b600061156b600c83610c99565b915061157682611535565b602082019050919050565b6000602082019050818103600083015261159a8161155e565b905091905056fea2646970667358221220ed5ee9baebc8191ec57ea14e9e3b3a31d542f2fd4b8a3eb2ad2a09d6a5e5369664736f6c63430008140033",
  "linkReferences": {},
  "deployedLinkReferences": {}
}