{
  "_format": "hh-sol-artifact-1",
  "contractName": "MockFDC",
  "sourceName": "contracts/MockFDC.sol",
  "abi": [
    {
      "inputs": [
        {
          "internalType": "bytes32",
          "name": "_txHash",
          "type": "bytes32"
        },
        {
          "internalType": "uint256",
          "name": "_amount",
          "type": "uint256"
        },
        {
          "internalType": "string",
          "name": "_memo",
          "type": "string"
        }
      ],
      "name": "verifyPayment",
      "outputs": [
        {
          "internalType": "bool",
          "name": "",
          "type": "bool"
        },
        {
          "internalType": "address",
          "name": "",
          "type": "address"
        }
      ],
      "stateMutability": "pure",
      "type": "function"
    }
  ],
  "bytecode": "0x608060405234801561001057600080fd5b506103ce806100206000396000f3fe608060405234801561001057600080fd5b506004361061002b5760003560e01c8063c592892e14610030575b600080fd5b61004a60048036038101906100459190610268565b610061565b604051610058929190610333565b60405180910390f35b600080600085604051602001610077919061037d565b6040516020818303038152906040528051906020012060001c90506001819250925050935093915050565b6000604051905090565b600080fd5b600080fd5b6000819050919050565b6100c9816100b6565b81146100d457600080fd5b50565b6000813590506100e6816100c0565b92915050565b6000819050919050565b6100ff816100ec565b811461010a57600080fd5b50565b60008135905061011c816100f6565b92915050565b600080fd5b600080fd5b6000601f19601f8301169050919050565b7f4e487b7100000000000000000000000000000000000000000000000000000000600052604160045260246000fd5b6101758261012c565b810181811067ffffffffffffffff821117156101945761019361013d565b5b80604052505050565b60006101a76100a2565b90506101b3828261016c565b919050565b600067ffffffffffffffff8211156101d3576101d261013d565b5b6101dc8261012c565b9050602081019050919050565b82818337600083830152505050565b600061020b610206846101b8565b61019d565b90508281526020810184848401111561022757610226610127565b5b6102328482856101e9565b509392505050565b600082601f83011261024f5761024e610122565b5b813561025f8482602086016101f8565b91505092915050565b600080600060608486031215610281576102806100ac565b5b600061028f868287016100d7565b93505060206102a08682870161010d565b925050604084013567ffffffffffffffff8111156102c1576102c06100b1565b5b6102cd8682870161023a565b9150509250925092565b60008115159050919050565b6102ec816102d7565b82525050565b600073ffffffffffffffffffffffffffffffffffffffff82169050919050565b600061031d826102f2565b9050919050565b61032d81610312565b82525050565b600060408201905061034860008301856102e3565b6103556020830184610324565b9392505050565b6000819050919050565b610377610372826100b6565b61035c565b82525050565b60006103898284610366565b6020820191508190509291505056fea26469706673582212204d07af354988788ab32eb6c25493aa88cd2f76fe2de257ad6ce20a02b52734ea64736f6c63430008140033",
  "linkReferences": {},
  "deployedLinkReferences": {}
}